{
  "contractName": "Crowdsale",
  "abi": [
    {
      "inputs": [
        {
          "name": "_rate",
          "type": "uint256"
        },
        {
          "name": "_wallet",
          "type": "address"
        },
        {
          "name": "_token",
          "type": "address"
        }
      ],
      "payable": false,
      "stateMutability": "nonpayable",
      "type": "constructor"
    },
    {
      "payable": true,
      "stateMutability": "payable",
      "type": "fallback"
    },
    {
      "anonymous": false,
      "inputs": [
        {
          "indexed": true,
          "name": "purchaser",
          "type": "address"
        },
        {
          "indexed": true,
          "name": "beneficiary",
          "type": "address"
        },
        {
          "indexed": false,
          "name": "value",
          "type": "uint256"
        },
        {
          "indexed": false,
          "name": "amount",
          "type": "uint256"
        }
      ],
      "name": "TokensPurchased",
      "type": "event"
    },
    {
      "constant": false,
      "inputs": [
        {
          "name": "beneficiary",
          "type": "address"
        }
      ],
      "name": "buyTokens",
      "outputs": [],
      "payable": true,
      "stateMutability": "payable",
      "type": "function"
    },
    {
      "constant": true,
      "inputs": [],
      "name": "capReached",
      "outputs": [
        {
          "name": "",
          "type": "bool"
        }
      ],
      "payable": false,
      "stateMutability": "view",
      "type": "function"
    }
  ],
  "bytecode": "0x608060405234801561001057600080fd5b5060405160608061059b8339810180604052810190808051906020019092919080519060200190929190805190602001909291905050508260028190555081600360006101000a81548173ffffffffffffffffffffffffffffffffffffffff021916908373ffffffffffffffffffffffffffffffffffffffff16021790555080600460006101000a81548173ffffffffffffffffffffffffffffffffffffffff021916908373ffffffffffffffffffffffffffffffffffffffff1602179055505050506104b9806100e26000396000f30060806040526004361061004c576000357c0100000000000000000000000000000000000000000000000000000000900463ffffffff1680634f93594514610057578063ec8ac4d814610086575b610055336100bc565b005b34801561006357600080fd5b5061006c610442565b604051808215151515815260200191505060405180910390f35b6100ba600480360381019080803573ffffffffffffffffffffffffffffffffffffffff1690602001909291905050506100bc565b005b60006100c6610442565b151515610161576040517f08c379a00000000000000000000000000000000000000000000000000000000081526004018080602001828103825260308152602001807f43617020686173206265656e20726561636865642c2063616e6e6f742062757981526020017f20616e79206d6f726520746f6b656e730000000000000000000000000000000081525060400191505060405180910390fd5b6002543481151561016e57fe5b04600460009054906101000a900473ffffffffffffffffffffffffffffffffffffffff1673ffffffffffffffffffffffffffffffffffffffff166318160ddd6040518163ffffffff167c0100000000000000000000000000000000000000000000000000000000028152600401602060405180830381600087803b1580156101f557600080fd5b505af1158015610209573d6000803e3d6000fd5b505050506040513d602081101561021f57600080fd5b81019080805190602001909291905050501115156102a5576040517f08c379a00000000000000000000000000000000000000000000000000000000081526004018080602001828103825260168152602001807f4e6f7420656e6f75676820746f6b656e73206c6566740000000000000000000081525060200191505060405180910390fd5b600254348115156102b257fe5b0490506102ca3460015461046c90919063ffffffff16565b600181905550600460009054906101000a900473ffffffffffffffffffffffffffffffffffffffff1673ffffffffffffffffffffffffffffffffffffffff1663a9059cbb83836040518363ffffffff167c0100000000000000000000000000000000000000000000000000000000028152600401808373ffffffffffffffffffffffffffffffffffffffff1673ffffffffffffffffffffffffffffffffffffffff16815260200182815260200192505050602060405180830381600087803b15801561039557600080fd5b505af11580156103a9573d6000803e3d6000fd5b505050506040513d60208110156103bf57600080fd5b8101908080519060200190929190505050508173ffffffffffffffffffffffffffffffffffffffff163373ffffffffffffffffffffffffffffffffffffffff167f6faf93231a456e552dbc9961f58d9713ee4f2e69d15f1975b050ef0911053a7b3484604051808381526020018281526020019250505060405180910390a35050565b600080546001541080610456575060008054145b156104645760009050610469565b600190505b90565b600080828401905083811015151561048357600080fd5b80915050929150505600a165627a7a72305820894ba87c9d604f4e5560df26b108d52119f0b9c42c3a215e976dbba0e606dbf10029",
  "source": "pragma solidity ^0.4.24;\n\nimport \"./IERC20.sol\";\nimport \"./SafeMath.sol\";\n\ncontract Crowdsale {\n    using SafeMath for uint256;\n\n    uint256 private cap; // maximum amount of ether to be raised\n    uint256 private weiRaised; // current amount of wei raised\n\n    uint256 private rate; // price in wei per smallest unit of token (e.g. 1 wei = 10 smallet unit of a token)\n    address private wallet; // wallet to hold the ethers\n    IERC20 private token; // address of erc20 tokens\n\n   /**\n    * Event for token purchase logging\n    * @param purchaser who paid for the tokens\n    * @param beneficiary who got the tokens\n    * @param value weis paid for purchase\n    * @param amount amount of tokens purchased\n    */\n    event TokensPurchased(\n        address indexed purchaser,\n        address indexed beneficiary,\n        uint256 value,\n        uint256 amount\n    );\n\n    // -----------------------------------------\n    // Public functions (DO NOT change the interface!)\n    // -----------------------------------------\n   /**\n    * @param _rate Number of token units a buyer gets per wei\n    * @dev The rate is the conversion between wei and the smallest and indivisible token unit.\n    * @param _wallet Address where collected funds will be forwarded to\n    * @param _token Address of the token being sold\n    */\n    constructor(uint256 _rate, address _wallet, IERC20 _token) public {\n        // TODO: Your Code Here\n        rate = _rate;\n        wallet = _wallet;\n        token = _token;\n    }\n\n    /**\n    * @dev Fallback function for users to send ether directly to contract address\n    */\n    function() external payable {\n        // TODO: Your Code Here\n        buyTokens(msg.sender);\n    }\n\n    function buyTokens(address beneficiary) public payable {\n        // Below are some general steps that should be done.\n        // You need to decide the right order to do them in.\n        //  - Validate any conditions\n        //  - Calculate number of tokens\n        //  - Update any states\n        //  - Transfer tokens and emit event\n        //  - Forward funds to wallet\n\n        // TODO: Your Code Here\n        require(!capReached(), \"Cap has been reached, cannot buy any more tokens\");\n        require(token.totalSupply()>msg.value/rate, \"Not enough tokens left\");\n        \n        uint amount = msg.value/rate;\n        weiRaised = weiRaised.add(msg.value);\n        \n        token.transfer(beneficiary, amount);\n        \n        emit TokensPurchased(msg.sender, beneficiary, msg.value, amount);\n    }\n\n    /**\n    * @dev Checks whether the cap has been reached.\n    * @return Whether the cap was reached\n    */\n    function capReached() public view returns (bool) {\n        // TODO: Your Code Here\n        if (weiRaised < cap || cap == 0) {\n            return false;\n        }\n        else {\n            return true;\n        }\n    }\n\n    // -----------------------------------------\n    // Internal functions (you can write any other internal helper functions here)\n    // -----------------------------------------\n\n\n}\n\n",
  "sourcePath": "/home/sdirix/Documents/eap/eth-accelerator-assignments/week3/CryptoBallers/contracts/CrowdSale.sol",
  "compiler": {
    "name": "solc",
    "version": "0.4.24+commit.e67f0147.Emscripten.clang"
  },
  "schemaVersion": "2.0.1",
  "updatedAt": "2018-12-17T20:07:31.796Z"
}