{
  "contractName": "CryptoBallers",
  "abi": [
    {
      "constant": true,
      "inputs": [
        {
          "name": "interfaceId",
          "type": "bytes4"
        }
      ],
      "name": "supportsInterface",
      "outputs": [
        {
          "name": "",
          "type": "bool"
        }
      ],
      "payable": false,
      "stateMutability": "view",
      "type": "function"
    },
    {
      "constant": true,
      "inputs": [
        {
          "name": "tokenId",
          "type": "uint256"
        }
      ],
      "name": "getApproved",
      "outputs": [
        {
          "name": "",
          "type": "address"
        }
      ],
      "payable": false,
      "stateMutability": "view",
      "type": "function"
    },
    {
      "constant": false,
      "inputs": [
        {
          "name": "to",
          "type": "address"
        },
        {
          "name": "tokenId",
          "type": "uint256"
        }
      ],
      "name": "approve",
      "outputs": [],
      "payable": false,
      "stateMutability": "nonpayable",
      "type": "function"
    },
    {
      "constant": true,
      "inputs": [
        {
          "name": "",
          "type": "address"
        }
      ],
      "name": "claimedFreeBaller",
      "outputs": [
        {
          "name": "",
          "type": "bool"
        }
      ],
      "payable": false,
      "stateMutability": "view",
      "type": "function"
    },
    {
      "constant": false,
      "inputs": [
        {
          "name": "from",
          "type": "address"
        },
        {
          "name": "to",
          "type": "address"
        },
        {
          "name": "tokenId",
          "type": "uint256"
        }
      ],
      "name": "transferFrom",
      "outputs": [],
      "payable": false,
      "stateMutability": "nonpayable",
      "type": "function"
    },
    {
      "constant": false,
      "inputs": [
        {
          "name": "from",
          "type": "address"
        },
        {
          "name": "to",
          "type": "address"
        },
        {
          "name": "tokenId",
          "type": "uint256"
        }
      ],
      "name": "safeTransferFrom",
      "outputs": [],
      "payable": false,
      "stateMutability": "nonpayable",
      "type": "function"
    },
    {
      "constant": true,
      "inputs": [
        {
          "name": "tokenId",
          "type": "uint256"
        }
      ],
      "name": "ownerOf",
      "outputs": [
        {
          "name": "",
          "type": "address"
        }
      ],
      "payable": false,
      "stateMutability": "view",
      "type": "function"
    },
    {
      "constant": true,
      "inputs": [
        {
          "name": "owner",
          "type": "address"
        }
      ],
      "name": "balanceOf",
      "outputs": [
        {
          "name": "",
          "type": "uint256"
        }
      ],
      "payable": false,
      "stateMutability": "view",
      "type": "function"
    },
    {
      "constant": true,
      "inputs": [
        {
          "name": "",
          "type": "uint256"
        }
      ],
      "name": "ballers",
      "outputs": [
        {
          "name": "name",
          "type": "string"
        },
        {
          "name": "level",
          "type": "uint256"
        },
        {
          "name": "offenseSkill",
          "type": "uint256"
        },
        {
          "name": "defenseSkill",
          "type": "uint256"
        },
        {
          "name": "winCount",
          "type": "uint256"
        },
        {
          "name": "lossCount",
          "type": "uint256"
        }
      ],
      "payable": false,
      "stateMutability": "view",
      "type": "function"
    },
    {
      "constant": false,
      "inputs": [
        {
          "name": "to",
          "type": "address"
        },
        {
          "name": "approved",
          "type": "bool"
        }
      ],
      "name": "setApprovalForAll",
      "outputs": [],
      "payable": false,
      "stateMutability": "nonpayable",
      "type": "function"
    },
    {
      "constant": false,
      "inputs": [
        {
          "name": "from",
          "type": "address"
        },
        {
          "name": "to",
          "type": "address"
        },
        {
          "name": "tokenId",
          "type": "uint256"
        },
        {
          "name": "_data",
          "type": "bytes"
        }
      ],
      "name": "safeTransferFrom",
      "outputs": [],
      "payable": false,
      "stateMutability": "nonpayable",
      "type": "function"
    },
    {
      "constant": true,
      "inputs": [
        {
          "name": "owner",
          "type": "address"
        },
        {
          "name": "operator",
          "type": "address"
        }
      ],
      "name": "isApprovedForAll",
      "outputs": [
        {
          "name": "",
          "type": "bool"
        }
      ],
      "payable": false,
      "stateMutability": "view",
      "type": "function"
    },
    {
      "inputs": [],
      "payable": false,
      "stateMutability": "nonpayable",
      "type": "constructor"
    },
    {
      "anonymous": false,
      "inputs": [],
      "name": "NewBaller",
      "type": "event"
    },
    {
      "anonymous": false,
      "inputs": [
        {
          "indexed": true,
          "name": "from",
          "type": "address"
        },
        {
          "indexed": true,
          "name": "to",
          "type": "address"
        },
        {
          "indexed": true,
          "name": "tokenId",
          "type": "uint256"
        }
      ],
      "name": "Transfer",
      "type": "event"
    },
    {
      "anonymous": false,
      "inputs": [
        {
          "indexed": true,
          "name": "owner",
          "type": "address"
        },
        {
          "indexed": true,
          "name": "approved",
          "type": "address"
        },
        {
          "indexed": true,
          "name": "tokenId",
          "type": "uint256"
        }
      ],
      "name": "Approval",
      "type": "event"
    },
    {
      "anonymous": false,
      "inputs": [
        {
          "indexed": true,
          "name": "owner",
          "type": "address"
        },
        {
          "indexed": true,
          "name": "operator",
          "type": "address"
        },
        {
          "indexed": false,
          "name": "approved",
          "type": "bool"
        }
      ],
      "name": "ApprovalForAll",
      "type": "event"
    },
    {
      "constant": false,
      "inputs": [],
      "name": "claimFreeBaller",
      "outputs": [],
      "payable": false,
      "stateMutability": "nonpayable",
      "type": "function"
    },
    {
      "constant": false,
      "inputs": [],
      "name": "buyBaller",
      "outputs": [],
      "payable": true,
      "stateMutability": "payable",
      "type": "function"
    },
    {
      "constant": true,
      "inputs": [
        {
          "name": "_from",
          "type": "address"
        }
      ],
      "name": "getAllCryptoBallers",
      "outputs": [
        {
          "name": "",
          "type": "string[]"
        },
        {
          "name": "",
          "type": "uint256[5][]"
        }
      ],
      "payable": false,
      "stateMutability": "view",
      "type": "function"
    },
    {
      "constant": true,
      "inputs": [],
      "name": "getAmountCryptoBallers",
      "outputs": [
        {
          "name": "",
          "type": "uint256"
        }
      ],
      "payable": false,
      "stateMutability": "view",
      "type": "function"
    },
    {
      "constant": false,
      "inputs": [
        {
          "name": "_ballerId",
          "type": "uint256"
        },
        {
          "name": "_opponentId",
          "type": "uint256"
        }
      ],
      "name": "playBall",
      "outputs": [],
      "payable": false,
      "stateMutability": "nonpayable",
      "type": "function"
    },
    {
      "constant": false,
      "inputs": [
        {
          "name": "_ballerId",
          "type": "uint256"
        },
        {
          "name": "_newName",
          "type": "string"
        }
      ],
      "name": "changeName",
      "outputs": [],
      "payable": false,
      "stateMutability": "nonpayable",
      "type": "function"
    }
  ],
  "bytecode": "0x608060405267016345785d8a00006008553480156200001d57600080fd5b506200005b6301ffc9a77c010000000000000000000000000000000000000000000000000000000002620000df640100000000026401000000009004565b620000986380ac58cd7c010000000000000000000000000000000000000000000000000000000002620000df640100000000026401000000009004565b33600560006101000a81548173ffffffffffffffffffffffffffffffffffffffff021916908373ffffffffffffffffffffffffffffffffffffffff1602179055506200019d565b63ffffffff7c010000000000000000000000000000000000000000000000000000000002817bffffffffffffffffffffffffffffffffffffffffffffffffffffffff1916141515156200013157600080fd5b6001600080837bffffffffffffffffffffffffffffffffffffffffffffffffffffffff19167bffffffffffffffffffffffffffffffffffffffffffffffffffffffff1916815260200190815260200160002060006101000a81548160ff02191690831515021790555050565b61291b80620001ad6000396000f3006080604052600436106100fc576000357c0100000000000000000000000000000000000000000000000000000000900463ffffffff16806301ffc9a714610101578063081812fc1461013e578063095ea7b31461017b57806314d89576146101a4578063211ecee9146101ae57806323b872dd146101eb5780632ec9a4c914610214578063382a4d3f1461022b5780633849defa1461026957806342842e0e146102925780636352211e146102bb57806370a08231146102f85780639eaf2bd014610335578063a22cb46514610377578063b88d4fde146103a0578063bfc9a1b0146103c9578063c39cbef1146103f4578063e985e9c51461041d575b600080fd5b34801561010d57600080fd5b50610128600480360361012391908101906121a1565b61045a565b60405161013591906125fd565b60405180910390f35b34801561014a57600080fd5b50610165600480360361016091908101906121f3565b6104c1565b604051610172919061255f565b60405180910390f35b34801561018757600080fd5b506101a2600480360361019d9190810190612165565b610512565b005b6101ac610657565b005b3480156101ba57600080fd5b506101d560048036036101d09190810190611ffa565b61072f565b6040516101e291906125fd565b60405180910390f35b3480156101f757600080fd5b50610212600480360361020d919081019061205f565b61074f565b005b34801561022057600080fd5b5061022961081e565b005b34801561023757600080fd5b50610252600480360361024d9190810190611ffa565b610996565b6040516102609291906125c6565b60405180910390f35b34801561027557600080fd5b50610290600480360361028b9190810190612274565b610bd9565b005b34801561029e57600080fd5b506102b960048036036102b4919081019061205f565b611073565b005b3480156102c757600080fd5b506102e260048036036102dd91908101906121f3565b611094565b6040516102ef919061255f565b60405180910390f35b34801561030457600080fd5b5061031f600480360361031a9190810190611ffa565b611112565b60405161032c9190612700565b60405180910390f35b34801561034157600080fd5b5061035c600480360361035791908101906121f3565b611196565b60405161036e96959493929190612618565b60405180910390f35b34801561038357600080fd5b5061039e60048036036103999190810190612129565b611279565b005b3480156103ac57600080fd5b506103c760048036036103c291908101906120ae565b6113b1565b005b3480156103d557600080fd5b506103de6113d9565b6040516103eb9190612700565b60405180910390f35b34801561040057600080fd5b5061041b6004803603610416919081019061221c565b6113e6565b005b34801561042957600080fd5b50610444600480360361043f9190810190612023565b611449565b60405161045191906125fd565b60405180910390f35b6000806000837bffffffffffffffffffffffffffffffffffffffffffffffffffffffff19167bffffffffffffffffffffffffffffffffffffffffffffffffffffffff1916815260200190815260200160002060009054906101000a900460ff169050919050565b60006104cc826114dd565b15156104d757600080fd5b6002600083815260200190815260200160002060009054906101000a900473ffffffffffffffffffffffffffffffffffffffff169050919050565b600061051d82611094565b90508073ffffffffffffffffffffffffffffffffffffffff168373ffffffffffffffffffffffffffffffffffffffff161415151561055a57600080fd5b8073ffffffffffffffffffffffffffffffffffffffff163373ffffffffffffffffffffffffffffffffffffffff16148061059a57506105998133611449565b5b15156105a557600080fd5b826002600084815260200190815260200160002060006101000a81548173ffffffffffffffffffffffffffffffffffffffff021916908373ffffffffffffffffffffffffffffffffffffffff160217905550818373ffffffffffffffffffffffffffffffffffffffff168273ffffffffffffffffffffffffffffffffffffffff167f8c5be1e5ebec7d5bd14f71427d1e84f3dd0314c0f7b2291e5b200ac8c7c3b92560405160405180910390a4505050565b600080600060085434101515156106a3576040517f08c379a000000000000000000000000000000000000000000000000000000000815260040161069a906126a0565b60405180910390fd5b600192506106b36001600a61154f565b60ff16915060ff1691506106fe6040805190810160405280600581526020017f70757070790000000000000000000000000000000000000000000000000000008152508484846115a0565b7ff544f5d8102ee587874c6fedf7aa3b8fabd32c4ed8429d97ef0b2b4f34e86e7960405160405180910390a1505050565b60076020528060005260406000206000915054906101000a900460ff1681565b610759338261166a565b151561076457600080fd5b600073ffffffffffffffffffffffffffffffffffffffff168273ffffffffffffffffffffffffffffffffffffffff16141515156107a057600080fd5b6107aa83826116ff565b6107b48382611802565b6107be8282611931565b808273ffffffffffffffffffffffffffffffffffffffff168473ffffffffffffffffffffffffffffffffffffffff167fddf252ad1be2c89b69c2b068fc378daa952ba7f163c4a11628f55a4df523b3ef60405160405180910390a4505050565b6000806000600760003373ffffffffffffffffffffffffffffffffffffffff1673ffffffffffffffffffffffffffffffffffffffff16815260200190815260200160002060009054906101000a900460ff161515156108b2576040517f08c379a00000000000000000000000000000000000000000000000000000000081526004016108a990612680565b60405180910390fd5b600192506108c26001600561154f565b60ff16915060ff1691506001600760003373ffffffffffffffffffffffffffffffffffffffff1673ffffffffffffffffffffffffffffffffffffffff16815260200190815260200160002060006101000a81548160ff0219169083151502179055506109656040805190810160405280600581526020017f70757070790000000000000000000000000000000000000000000000000000008152508484846115a0565b7ff544f5d8102ee587874c6fedf7aa3b8fabd32c4ed8429d97ef0b2b4f34e86e7960405160405180910390a1505050565b60608060608060008060006109aa88611112565b6040519080825280602002602001820160405280156109dd57816020015b60608152602001906001900390816109c85790505b5094506109e988611112565b604051908082528060200260200182016040528015610a2257816020015b610a0f611dac565b815260200190600190039081610a075790505b50935060009250600091505b600680549050821015610bc957610a4482611094565b73ffffffffffffffffffffffffffffffffffffffff168873ffffffffffffffffffffffffffffffffffffffff161415610bbc57600682815481101515610a8657fe5b90600052602060002090600602019050806000018054600181600116156101000203166002900480601f016020809104026020016040519081016040528092919081815260200182805460018160011615610100020316600290048015610b2e5780601f10610b0357610100808354040283529160200191610b2e565b820191906000526020600020905b815481529060010190602001808311610b1157829003601f168201915b50505050508584815181101515610b4157fe5b9060200190602002018190525060a0604051908101604052808260010154815260200182600201548152602001826003015481526020018260040154815260200182600501548152508484815181101515610b9857fe5b90602001906020020181905250610bb9600184611a8b90919063ffffffff16565b92505b8180600101925050610a2e565b8484965096505050505050915091565b600080600080600080600088610bee81611094565b50888a14151515610c34576040517f08c379a0000000000000000000000000000000000000000000000000000000008152600401610c2b906126c0565b60405180910390fd5b610c3d89611094565b73ffffffffffffffffffffffffffffffffffffffff16610c5c8b611094565b73ffffffffffffffffffffffffffffffffffffffff1614151515610cb5576040517f08c379a0000000000000000000000000000000000000000000000000000000008152600401610cac906126e0565b60405180910390fd5b60068a815481101515610cc457fe5b90600052602060002090600602019750600689815481101515610ce357fe5b90600052602060002090600602019650610cff6000600361154f565b60ff16955060ff1695508660030154868960020154011115610d8057610d3360018960010154611a8b90919063ffffffff16565b8860010181905550610d5360018960040154611a8b90919063ffffffff16565b8860040181905550610d7360018860050154611a8b90919063ffffffff16565b8760050181905550610df4565b8660020154858960030154011015610df357610daa60018860010154611a8b90919063ffffffff16565b8760010181905550610dca60018860040154611a8b90919063ffffffff16565b8760040181905550610dea60018960050154611a8b90919063ffffffff16565b88600501819055505b5b600560068b815481101515610e0557fe5b90600052602060002090600602016001015414156110675761101f60068b815481101515610e2f57fe5b906000526020600020906006020160c06040519081016040529081600082018054600181600116156101000203166002900480601f016020809104026020016040519081016040528092919081815260200182805460018160011615610100020316600290048015610ee25780601f10610eb757610100808354040283529160200191610ee2565b820191906000526020600020905b815481529060010190602001808311610ec557829003601f168201915b505050505081526020016001820154815260200160028201548152602001600382015481526020016004820154815260200160058201548152505060068b815481101515610f2c57fe5b906000526020600020906006020160c06040519081016040529081600082018054600181600116156101000203166002900480601f016020809104026020016040519081016040528092919081815260200182805460018160011615610100020316600290048015610fdf5780601f10610fb457610100808354040283529160200191610fdf565b820191906000526020600020905b815481529060010190602001808311610fc257829003601f168201915b5050505050815260200160018201548152602001600282015481526020016003820154815260200160048201548152602001600582015481525050611aac565b9350935093506110666040805190810160405280600b81526020017f70757070795f62726565640000000000000000000000000000000000000000008152508585856115a0565b5b50505050505050505050565b61108f83838360206040519081016040528060008152506113b1565b505050565b6000806001600084815260200190815260200160002060009054906101000a900473ffffffffffffffffffffffffffffffffffffffff169050600073ffffffffffffffffffffffffffffffffffffffff168173ffffffffffffffffffffffffffffffffffffffff161415151561110957600080fd5b80915050919050565b60008073ffffffffffffffffffffffffffffffffffffffff168273ffffffffffffffffffffffffffffffffffffffff161415151561114f57600080fd5b600360008373ffffffffffffffffffffffffffffffffffffffff1673ffffffffffffffffffffffffffffffffffffffff168152602001908152602001600020549050919050565b6006818154811015156111a557fe5b9060005260206000209060060201600091509050806000018054600181600116156101000203166002900480601f0160208091040260200160405190810160405280929190818152602001828054600181600116156101000203166002900480156112515780601f1061122657610100808354040283529160200191611251565b820191906000526020600020905b81548152906001019060200180831161123457829003601f168201915b5050505050908060010154908060020154908060030154908060040154908060050154905086565b3373ffffffffffffffffffffffffffffffffffffffff168273ffffffffffffffffffffffffffffffffffffffff16141515156112b457600080fd5b80600460003373ffffffffffffffffffffffffffffffffffffffff1673ffffffffffffffffffffffffffffffffffffffff16815260200190815260200160002060008473ffffffffffffffffffffffffffffffffffffffff1673ffffffffffffffffffffffffffffffffffffffff16815260200190815260200160002060006101000a81548160ff0219169083151502179055508173ffffffffffffffffffffffffffffffffffffffff163373ffffffffffffffffffffffffffffffffffffffff167f17307eab39ab6107e8899845ad3d59bd9653f200f220920489ca2b5937696c31836040516113a591906125fd565b60405180910390a35050565b6113bc84848461074f565b6113c884848484611b58565b15156113d357600080fd5b50505050565b6000600680549050905090565b600283816006828154811015156113f957fe5b906000526020600020905050508461141081611094565b50848460068881548110151561142257fe5b90600052602060002090600602016000019190611440929190611dcf565b50505050505050565b6000600460008473ffffffffffffffffffffffffffffffffffffffff1673ffffffffffffffffffffffffffffffffffffffff16815260200190815260200160002060008373ffffffffffffffffffffffffffffffffffffffff1673ffffffffffffffffffffffffffffffffffffffff16815260200190815260200160002060009054906101000a900460ff16905092915050565b6000806001600084815260200190815260200160002060009054906101000a900473ffffffffffffffffffffffffffffffffffffffff169050600073ffffffffffffffffffffffffffffffffffffffff168173ffffffffffffffffffffffffffffffffffffffff161415915050919050565b600080600080858560ff1660014303406001900460ff1681151561156f57fe5b06019150858560ff1660024303406001900460ff1681151561158d57fe5b0601905081819350935050509250929050565b60006006805490509050600660c060405190810160405280878152602001868152602001858152602001848152602001600081526020016000815250908060018154018082558091505090600182039060005260206000209060060201600090919290919091506000820151816000019080519060200190611623929190611e4f565b506020820151816001015560408201518160020155606082015181600301556080820151816004015560a082015181600501555050506116633382611ca8565b5050505050565b60008061167683611094565b90508073ffffffffffffffffffffffffffffffffffffffff168473ffffffffffffffffffffffffffffffffffffffff1614806116e557508373ffffffffffffffffffffffffffffffffffffffff166116cd846104c1565b73ffffffffffffffffffffffffffffffffffffffff16145b806116f657506116f58185611449565b5b91505092915050565b8173ffffffffffffffffffffffffffffffffffffffff1661171f82611094565b73ffffffffffffffffffffffffffffffffffffffff1614151561174157600080fd5b600073ffffffffffffffffffffffffffffffffffffffff166002600083815260200190815260200160002060009054906101000a900473ffffffffffffffffffffffffffffffffffffffff1673ffffffffffffffffffffffffffffffffffffffff161415156117fe5760006002600083815260200190815260200160002060006101000a81548173ffffffffffffffffffffffffffffffffffffffff021916908373ffffffffffffffffffffffffffffffffffffffff1602179055505b5050565b8173ffffffffffffffffffffffffffffffffffffffff1661182282611094565b73ffffffffffffffffffffffffffffffffffffffff1614151561184457600080fd5b6118976001600360008573ffffffffffffffffffffffffffffffffffffffff1673ffffffffffffffffffffffffffffffffffffffff16815260200190815260200160002054611d4e90919063ffffffff16565b600360008473ffffffffffffffffffffffffffffffffffffffff1673ffffffffffffffffffffffffffffffffffffffff1681526020019081526020016000208190555060006001600083815260200190815260200160002060006101000a81548173ffffffffffffffffffffffffffffffffffffffff021916908373ffffffffffffffffffffffffffffffffffffffff1602179055505050565b600073ffffffffffffffffffffffffffffffffffffffff166001600083815260200190815260200160002060009054906101000a900473ffffffffffffffffffffffffffffffffffffffff1673ffffffffffffffffffffffffffffffffffffffff1614151561199f57600080fd5b816001600083815260200190815260200160002060006101000a81548173ffffffffffffffffffffffffffffffffffffffff021916908373ffffffffffffffffffffffffffffffffffffffff160217905550611a446001600360008573ffffffffffffffffffffffffffffffffffffffff1673ffffffffffffffffffffffffffffffffffffffff16815260200190815260200160002054611a8b90919063ffffffff16565b600360008473ffffffffffffffffffffffffffffffffffffffff1673ffffffffffffffffffffffffffffffffffffffff168152602001908152602001600020819055505050565b6000808284019050838110151515611aa257600080fd5b8091505092915050565b600080600080600080611ae36002611ad589602001518b60200151611a8b90919063ffffffff16565b611d6f90919063ffffffff16565b9250611b136002611b0589604001518b60400151611a8b90919063ffffffff16565b611d6f90919063ffffffff16565b9150611b436002611b3589606001518b60600151611a8b90919063ffffffff16565b611d6f90919063ffffffff16565b90508282829550955095505050509250925092565b600080611b7a8573ffffffffffffffffffffffffffffffffffffffff16611d99565b1515611b895760019150611c9f565b8473ffffffffffffffffffffffffffffffffffffffff1663150b7a02338887876040518563ffffffff167c0100000000000000000000000000000000000000000000000000000000028152600401611be4949392919061257a565b602060405180830381600087803b158015611bfe57600080fd5b505af1158015611c12573d6000803e3d6000fd5b505050506040513d601f19601f82011682018060405250611c3691908101906121ca565b905063150b7a027c0100000000000000000000000000000000000000000000000000000000027bffffffffffffffffffffffffffffffffffffffffffffffffffffffff1916817bffffffffffffffffffffffffffffffffffffffffffffffffffffffff19161491505b50949350505050565b600073ffffffffffffffffffffffffffffffffffffffff168273ffffffffffffffffffffffffffffffffffffffff1614151515611ce457600080fd5b611cee8282611931565b808273ffffffffffffffffffffffffffffffffffffffff16600073ffffffffffffffffffffffffffffffffffffffff167fddf252ad1be2c89b69c2b068fc378daa952ba7f163c4a11628f55a4df523b3ef60405160405180910390a45050565b600080838311151515611d6057600080fd5b82840390508091505092915050565b600080600083111515611d8157600080fd5b8284811515611d8c57fe5b0490508091505092915050565b600080823b905060008111915050919050565b60a060405190810160405280600590602082028038833980820191505090505090565b828054600181600116156101000203166002900490600052602060002090601f016020900481019282601f10611e1057803560ff1916838001178555611e3e565b82800160010185558215611e3e579182015b82811115611e3d578235825591602001919060010190611e22565b5b509050611e4b9190611ecf565b5090565b828054600181600116156101000203166002900490600052602060002090601f016020900481019282601f10611e9057805160ff1916838001178555611ebe565b82800160010185558215611ebe579182015b82811115611ebd578251825591602001919060010190611ea2565b5b509050611ecb9190611ecf565b5090565b611ef191905b80821115611eed576000816000905550600101611ed5565b5090565b90565b6000611f00823561282c565b905092915050565b6000611f14823561284c565b905092915050565b6000611f288235612858565b905092915050565b6000611f3c8251612858565b905092915050565b600082601f8301121515611f5757600080fd5b8135611f6a611f6582612748565b61271b565b91508082526020830160208301858383011115611f8657600080fd5b611f9183828461288e565b50505092915050565b60008083601f8401121515611fae57600080fd5b8235905067ffffffffffffffff811115611fc757600080fd5b602083019150836001820283011115611fdf57600080fd5b9250929050565b6000611ff28235612884565b905092915050565b60006020828403121561200c57600080fd5b600061201a84828501611ef4565b91505092915050565b6000806040838503121561203657600080fd5b600061204485828601611ef4565b925050602061205585828601611ef4565b9150509250929050565b60008060006060848603121561207457600080fd5b600061208286828701611ef4565b935050602061209386828701611ef4565b92505060406120a486828701611fe6565b9150509250925092565b600080600080608085870312156120c457600080fd5b60006120d287828801611ef4565b94505060206120e387828801611ef4565b93505060406120f487828801611fe6565b925050606085013567ffffffffffffffff81111561211157600080fd5b61211d87828801611f44565b91505092959194509250565b6000806040838503121561213c57600080fd5b600061214a85828601611ef4565b925050602061215b85828601611f08565b9150509250929050565b6000806040838503121561217857600080fd5b600061218685828601611ef4565b925050602061219785828601611fe6565b9150509250929050565b6000602082840312156121b357600080fd5b60006121c184828501611f1c565b91505092915050565b6000602082840312156121dc57600080fd5b60006121ea84828501611f30565b91505092915050565b60006020828403121561220557600080fd5b600061221384828501611fe6565b91505092915050565b60008060006040848603121561223157600080fd5b600061223f86828701611fe6565b935050602084013567ffffffffffffffff81111561225c57600080fd5b61226886828701611f9a565b92509250509250925092565b6000806040838503121561228757600080fd5b600061229585828601611fe6565b92505060206122a685828601611fe6565b9150509250929050565b6122b9816127f6565b82525050565b60006122ca82612798565b8084526020840193506122dc83612774565b60005b8281101561230e576122f2868351612388565b6122fb826127cf565b915060a0860195506001810190506122df565b50849250505092915050565b6000612325826127a3565b8084526020840193508360208202850161233e85612781565b60005b84811015612377578383038852612359838351612418565b9250612364826127dc565b9150602088019750600181019050612341565b508196508694505050505092915050565b612391816127ae565b61239a8261278e565b60005b828110156123cc576123b0858351612550565b6123b9826127e9565b915060208501945060018101905061239d565b5050505050565b6123dc81612816565b82525050565b60006123ed826127b9565b80845261240181602086016020860161289d565b61240a816128d0565b602085010191505092915050565b6000612423826127c4565b80845261243781602086016020860161289d565b612440816128d0565b602085010191505092915050565b6000602982527f616464726573732068617320616c726561647920636c61696d6564206120667260208301527f65652062616c6c657200000000000000000000000000000000000000000000006040830152606082019050919050565b6000602082527f6e6f7420656e6f7567682065746865727320696e207472616e73616374696f6e6020830152604082019050919050565b6000601b82527f612062616c6c65722063616e277420666967687420697473656c6600000000006020830152604082019050919050565b6000601c82527f63616e277420666967687420796f7572206f776e2062616c6c657273000000006020830152604082019050919050565b61255981612822565b82525050565b600060208201905061257460008301846122b0565b92915050565b600060808201905061258f60008301876122b0565b61259c60208301866122b0565b6125a96040830185612550565b81810360608301526125bb81846123e2565b905095945050505050565b600060408201905081810360008301526125e0818561231a565b905081810360208301526125f481846122bf565b90509392505050565b600060208201905061261260008301846123d3565b92915050565b600060c08201905081810360008301526126328189612418565b90506126416020830188612550565b61264e6040830187612550565b61265b6060830186612550565b6126686080830185612550565b61267560a0830184612550565b979650505050505050565b600060208201905081810360008301526126998161244e565b9050919050565b600060208201905081810360008301526126b9816124ab565b9050919050565b600060208201905081810360008301526126d9816124e2565b9050919050565b600060208201905081810360008301526126f981612519565b9050919050565b60006020820190506127156000830184612550565b92915050565b6000604051905081810181811067ffffffffffffffff8211171561273e57600080fd5b8060405250919050565b600067ffffffffffffffff82111561275f57600080fd5b601f19601f8301169050602081019050919050565b6000602082019050919050565b6000602082019050919050565b6000819050919050565b600081519050919050565b600081519050919050565b600060059050919050565b600081519050919050565b600081519050919050565b6000602082019050919050565b6000602082019050919050565b6000602082019050919050565b600073ffffffffffffffffffffffffffffffffffffffff82169050919050565b60008115159050919050565b6000819050919050565b600073ffffffffffffffffffffffffffffffffffffffff82169050919050565b60008115159050919050565b60007fffffffff0000000000000000000000000000000000000000000000000000000082169050919050565b6000819050919050565b82818337600083830152505050565b60005b838110156128bb5780820151818401526020810190506128a0565b838111156128ca576000848401525b50505050565b6000601f19601f83011690509190505600a265627a7a723058200faf6bfb22bf27e1431798320ed94c578205ce5673daa54142758d3fc17390226c6578706572696d656e74616cf50037",
  "source": "pragma solidity ^0.4.24;\npragma experimental ABIEncoderV2;\n\nimport 'openzeppelin-solidity/contracts/token/ERC721/ERC721.sol';\n\ncontract CryptoBallers is ERC721 {\n\n    struct Baller {\n        string name;\n        uint level;\n        uint offenseSkill;\n        uint defenseSkill;\n        uint winCount;\n        uint lossCount;\n    }\n\n    event NewBaller();\n\n    address owner;\n    Baller[] public ballers;\n\n    // Mapping for if address has claimed their free baller\n    mapping(address => bool) public claimedFreeBaller;\n\n    // Fee for buying a baller\n    uint ballerFee = 0.10 ether;\n\n    /**\n    * @dev Ensures ownership of the specified token ID\n    * @param _tokenId uint256 ID of the token to check\n    */\n    modifier onlyOwnerOf(uint256 _tokenId) {\n        // TODO add your code\n        msg.sender == ownerOf(_tokenId);\n        _;\n    }\n\n    /**\n    * @dev Ensures ownership of contract\n    */\n    modifier onlyOwner() {\n        // TODO add your code\n        msg.sender == owner;\n        _;\n    }\n\n    /**\n    * @dev Ensures baller has level above specified level\n    * @param _level uint level that the baller needs to be above\n    * @param _ballerId uint ID of the Baller to check\n    */\n    modifier aboveLevel(uint _level, uint _ballerId) {\n        // TODO add your code\n        ballers[_ballerId].level > _level;\n        _;\n    }\n\n    constructor() public {\n        owner = msg.sender;\n    }\n\n    /**\n    * @dev Allows user to claim first free baller, ensure no address can claim more than one\n    */\n    function claimFreeBaller() public {\n        // TODO add your code\n        require(!claimedFreeBaller[msg.sender], \"address has already claimed a free baller\");\n        \n        uint level = 1;\n        (uint offense, uint defense) = _random(1,5);\n        claimedFreeBaller[msg.sender] = true;\n        _createBaller(\"puppy\", level, offense, defense);\n        emit NewBaller();\n    }\n\n    /**\n    * @dev Allows user to buy baller with set attributes\n    */\n    function buyBaller() public payable {\n        // TODO add your code\n        require(msg.value >= ballerFee, \"not enough ethers in transaction\");\n        \n        uint level = 1;\n        (uint offense, uint defense) = _random(1,10);\n        _createBaller(\"puppy\", level, offense, defense);\n        emit NewBaller();\n    }\n\n    function getAllCryptoBallers(address _from) public view returns (string[], uint256[5][]) {\n\n        string[] memory name = new string[](balanceOf(_from));\n        uint256[5][] memory specs = new uint256[5][](balanceOf(_from));\n        uint j = 0;\n\n        for (uint i = 0; i < ballers.length; i++) {\n\n            if (_from == ownerOf(i)) {\n                Baller storage tmp_baller = ballers[i];\n                \n                name[j] = tmp_baller.name;\n                specs[j] = [tmp_baller.level, tmp_baller.offenseSkill, tmp_baller.defenseSkill, tmp_baller.winCount, tmp_baller.lossCount];\n                /*specs[0][j] = tmp_baller.level;\n                specs[1][j] = tmp_baller.offenseSkill;\n                specs[2][j] = tmp_baller.defenseSkill;\n                specs[3][j] = tmp_baller.winCount;\n                specs[4][j] = tmp_baller.lossCount;*/\n                j = j.add(1);\n            }\n        }\n        return (name, specs);\n    }\n\n    function getAmountCryptoBallers() public view returns (uint) {\n        return ballers.length;\n    }\n\n    /**\n    * @dev Play a game with your baller and an opponent baller\n    * If your baller has more offensive skill than your opponent's defensive skill\n    * you win, your level goes up, the opponent loses, and vice versa.\n    * If you win and your baller reaches level 5, you are awarded a new baller with a mix of traits\n    * from your baller and your opponent's baller.\n    * @param _ballerId uint ID of the Baller initiating the game\n    * @param _opponentId uint ID that the baller needs to be above\n    */\n    function playBall(uint _ballerId, uint _opponentId) onlyOwnerOf(_ballerId) public {\n        // TODO add your code\n        require(_ballerId != _opponentId, \"a baller can't fight itself\");\n        require(ownerOf(_ballerId) != ownerOf(_opponentId), \"can't fight your own ballers\");\n\n        Baller storage player = ballers[_ballerId];\n        Baller storage opponent = ballers[_opponentId];\n        \n        // calculate random first strike advantage for player\n        (uint firstStrikeOffense, uint firstStrikeDefense) = _random(0,3);\n\n        if ((player.offenseSkill + firstStrikeOffense) > opponent.defenseSkill) {\n            player.level = player.level.add(1);\n            player.winCount = player.winCount.add(1);\n            opponent.lossCount = opponent.lossCount.add(1);\n        } else if ((player.defenseSkill + firstStrikeDefense) < opponent.offenseSkill) {\n            opponent.level = opponent.level.add(1);\n            opponent.winCount = opponent.winCount.add(1);\n            player.lossCount = player.lossCount.add(1);\n        }\n\n        if (ballers[_ballerId].level == 5) {\n            (uint level, uint attack, uint defense) = _breedBallers(ballers[_ballerId], ballers[_opponentId]);\n            _createBaller(\"puppy_breed\", level, attack, defense);\n        }\n    }\n\n    /**\n    * @dev Changes the name of your baller if they are above level two\n    * @param _ballerId uint ID of the Baller who's name you want to change\n    * @param _newName string new name you want to give to your Baller\n    */\n    function changeName(uint _ballerId, string _newName) external aboveLevel(2, _ballerId) onlyOwnerOf(_ballerId) {\n        // TODO add your code\n        ballers[_ballerId].name = _newName;\n    }\n\n    /**\n   * @dev Creates a baller based on the params given, adds them to the Baller array and mints a token\n   * @param _name string name of the Baller\n   * @param _level uint level of the Baller\n   * @param _offenseSkill offensive skill of the Baller\n   * @param _defenseSkill defensive skill of the Baller\n   */\n    function _createBaller(string _name, uint _level, uint _offenseSkill, uint _defenseSkill) internal {\n        // TODO add your code\n        uint256 tokenId = ballers.length;\n        ballers.push(Baller(_name, _level, _offenseSkill, _defenseSkill, 0, 0));\n        _mint(msg.sender, tokenId);\n    }\n\n    /**\n    * @dev Helper function for a new baller which averages the attributes of the level, attack, defense of the ballers\n    * @param _baller1 Baller first baller to average\n    * @param _baller2 Baller second baller to average\n    * @return tuple of level, attack and defense\n    */\n    function _breedBallers(Baller _baller1, Baller _baller2) internal pure returns (uint, uint, uint) {\n        uint level = _baller1.level.add(_baller2.level).div(2);\n        uint attack = _baller1.offenseSkill.add(_baller2.offenseSkill).div(2);\n        uint defense = _baller1.defenseSkill.add(_baller2.defenseSkill).div(2);\n        return (level, attack, defense);\n\n    }\n\n    function _random(uint8 floor, uint8 ceiling) private view returns (uint8, uint8) {\n        //TODO: build in a range for random\n        uint8 offense = uint8(blockhash(block.number-1))%ceiling + floor;\n        uint8 defense = uint8(blockhash(block.number-2))%ceiling + floor;\n        return (offense, defense);\n    }\n}",
  "sourcePath": "/home/sdirix/Documents/eap/eth-accelerator-assignments/week3/CryptoBallers/contracts/CryptoBallers.sol",
  "compiler": {
    "name": "solc",
    "version": "0.4.24+commit.e67f0147.Emscripten.clang"
  },
  "schemaVersion": "2.0.1",
  "updatedAt": "2018-12-16T12:59:02.979Z"
}