{
  "contractName": "CryptoBallers",
  "abi": [
    {
      "constant": true,
      "inputs": [
        {
          "name": "interfaceId",
          "type": "bytes4"
        }
      ],
      "name": "supportsInterface",
      "outputs": [
        {
          "name": "",
          "type": "bool"
        }
      ],
      "payable": false,
      "stateMutability": "view",
      "type": "function"
    },
    {
      "constant": true,
      "inputs": [
        {
          "name": "tokenId",
          "type": "uint256"
        }
      ],
      "name": "getApproved",
      "outputs": [
        {
          "name": "",
          "type": "address"
        }
      ],
      "payable": false,
      "stateMutability": "view",
      "type": "function"
    },
    {
      "constant": false,
      "inputs": [
        {
          "name": "to",
          "type": "address"
        },
        {
          "name": "tokenId",
          "type": "uint256"
        }
      ],
      "name": "approve",
      "outputs": [],
      "payable": false,
      "stateMutability": "nonpayable",
      "type": "function"
    },
    {
      "constant": true,
      "inputs": [
        {
          "name": "",
          "type": "address"
        }
      ],
      "name": "claimedFreeBaller",
      "outputs": [
        {
          "name": "",
          "type": "bool"
        }
      ],
      "payable": false,
      "stateMutability": "view",
      "type": "function"
    },
    {
      "constant": false,
      "inputs": [
        {
          "name": "from",
          "type": "address"
        },
        {
          "name": "to",
          "type": "address"
        },
        {
          "name": "tokenId",
          "type": "uint256"
        }
      ],
      "name": "transferFrom",
      "outputs": [],
      "payable": false,
      "stateMutability": "nonpayable",
      "type": "function"
    },
    {
      "constant": false,
      "inputs": [
        {
          "name": "from",
          "type": "address"
        },
        {
          "name": "to",
          "type": "address"
        },
        {
          "name": "tokenId",
          "type": "uint256"
        }
      ],
      "name": "safeTransferFrom",
      "outputs": [],
      "payable": false,
      "stateMutability": "nonpayable",
      "type": "function"
    },
    {
      "constant": true,
      "inputs": [
        {
          "name": "tokenId",
          "type": "uint256"
        }
      ],
      "name": "ownerOf",
      "outputs": [
        {
          "name": "",
          "type": "address"
        }
      ],
      "payable": false,
      "stateMutability": "view",
      "type": "function"
    },
    {
      "constant": true,
      "inputs": [
        {
          "name": "owner",
          "type": "address"
        }
      ],
      "name": "balanceOf",
      "outputs": [
        {
          "name": "",
          "type": "uint256"
        }
      ],
      "payable": false,
      "stateMutability": "view",
      "type": "function"
    },
    {
      "constant": true,
      "inputs": [
        {
          "name": "",
          "type": "uint256"
        }
      ],
      "name": "ballers",
      "outputs": [
        {
          "name": "name",
          "type": "string"
        },
        {
          "name": "level",
          "type": "uint256"
        },
        {
          "name": "offenseSkill",
          "type": "uint256"
        },
        {
          "name": "defenseSkill",
          "type": "uint256"
        },
        {
          "name": "winCount",
          "type": "uint256"
        },
        {
          "name": "lossCount",
          "type": "uint256"
        }
      ],
      "payable": false,
      "stateMutability": "view",
      "type": "function"
    },
    {
      "constant": false,
      "inputs": [
        {
          "name": "to",
          "type": "address"
        },
        {
          "name": "approved",
          "type": "bool"
        }
      ],
      "name": "setApprovalForAll",
      "outputs": [],
      "payable": false,
      "stateMutability": "nonpayable",
      "type": "function"
    },
    {
      "constant": false,
      "inputs": [
        {
          "name": "from",
          "type": "address"
        },
        {
          "name": "to",
          "type": "address"
        },
        {
          "name": "tokenId",
          "type": "uint256"
        },
        {
          "name": "_data",
          "type": "bytes"
        }
      ],
      "name": "safeTransferFrom",
      "outputs": [],
      "payable": false,
      "stateMutability": "nonpayable",
      "type": "function"
    },
    {
      "constant": true,
      "inputs": [
        {
          "name": "owner",
          "type": "address"
        },
        {
          "name": "operator",
          "type": "address"
        }
      ],
      "name": "isApprovedForAll",
      "outputs": [
        {
          "name": "",
          "type": "bool"
        }
      ],
      "payable": false,
      "stateMutability": "view",
      "type": "function"
    },
    {
      "inputs": [],
      "payable": false,
      "stateMutability": "nonpayable",
      "type": "constructor"
    },
    {
      "anonymous": false,
      "inputs": [
        {
          "indexed": true,
          "name": "from",
          "type": "address"
        },
        {
          "indexed": true,
          "name": "to",
          "type": "address"
        },
        {
          "indexed": true,
          "name": "tokenId",
          "type": "uint256"
        }
      ],
      "name": "Transfer",
      "type": "event"
    },
    {
      "anonymous": false,
      "inputs": [
        {
          "indexed": true,
          "name": "owner",
          "type": "address"
        },
        {
          "indexed": true,
          "name": "approved",
          "type": "address"
        },
        {
          "indexed": true,
          "name": "tokenId",
          "type": "uint256"
        }
      ],
      "name": "Approval",
      "type": "event"
    },
    {
      "anonymous": false,
      "inputs": [
        {
          "indexed": true,
          "name": "owner",
          "type": "address"
        },
        {
          "indexed": true,
          "name": "operator",
          "type": "address"
        },
        {
          "indexed": false,
          "name": "approved",
          "type": "bool"
        }
      ],
      "name": "ApprovalForAll",
      "type": "event"
    },
    {
      "constant": false,
      "inputs": [],
      "name": "claimFreeBaller",
      "outputs": [],
      "payable": false,
      "stateMutability": "nonpayable",
      "type": "function"
    },
    {
      "constant": false,
      "inputs": [],
      "name": "buyBaller",
      "outputs": [],
      "payable": true,
      "stateMutability": "payable",
      "type": "function"
    },
    {
      "constant": true,
      "inputs": [
        {
          "name": "_from",
          "type": "address"
        }
      ],
      "name": "getAllCryptoBallers",
      "outputs": [
        {
          "name": "",
          "type": "string[]"
        },
        {
          "name": "",
          "type": "uint256[5][]"
        }
      ],
      "payable": false,
      "stateMutability": "view",
      "type": "function"
    },
    {
      "constant": false,
      "inputs": [
        {
          "name": "_ballerId",
          "type": "uint256"
        },
        {
          "name": "_opponentId",
          "type": "uint256"
        }
      ],
      "name": "playBall",
      "outputs": [],
      "payable": false,
      "stateMutability": "nonpayable",
      "type": "function"
    },
    {
      "constant": false,
      "inputs": [
        {
          "name": "_ballerId",
          "type": "uint256"
        },
        {
          "name": "_newName",
          "type": "string"
        }
      ],
      "name": "changeName",
      "outputs": [],
      "payable": false,
      "stateMutability": "nonpayable",
      "type": "function"
    }
  ],
  "bytecode": "0x608060405267016345785d8a00006008553480156200001d57600080fd5b506200005b6301ffc9a77c010000000000000000000000000000000000000000000000000000000002620000df640100000000026401000000009004565b620000986380ac58cd7c010000000000000000000000000000000000000000000000000000000002620000df640100000000026401000000009004565b33600560006101000a81548173ffffffffffffffffffffffffffffffffffffffff021916908373ffffffffffffffffffffffffffffffffffffffff1602179055506200019d565b63ffffffff7c010000000000000000000000000000000000000000000000000000000002817bffffffffffffffffffffffffffffffffffffffffffffffffffffffff1916141515156200013157600080fd5b6001600080837bffffffffffffffffffffffffffffffffffffffffffffffffffffffff19167bffffffffffffffffffffffffffffffffffffffffffffffffffffffff1916815260200190815260200160002060006101000a81548160ff02191690831515021790555050565b61292d80620001ad6000396000f3006080604052600436106100f1576000357c0100000000000000000000000000000000000000000000000000000000900463ffffffff16806301ffc9a7146100f6578063081812fc14610133578063095ea7b31461017057806314d8957614610199578063211ecee9146101a357806323b872dd146101e05780632ec9a4c914610209578063382a4d3f146102205780633849defa1461025e57806342842e0e146102875780636352211e146102b057806370a08231146102ed5780639eaf2bd01461032a578063a22cb4651461036c578063b88d4fde14610395578063c39cbef1146103be578063e985e9c5146103e7575b600080fd5b34801561010257600080fd5b5061011d600480360361011891908101906121b3565b610424565b60405161012a919061260f565b60405180910390f35b34801561013f57600080fd5b5061015a60048036036101559190810190612205565b61048b565b6040516101679190612571565b60405180910390f35b34801561017c57600080fd5b5061019760048036036101929190810190612177565b6104dc565b005b6101a1610621565b005b3480156101af57600080fd5b506101ca60048036036101c5919081019061200c565b6106cd565b6040516101d7919061260f565b60405180910390f35b3480156101ec57600080fd5b5061020760048036036102029190810190612071565b6106ed565b005b34801561021557600080fd5b5061021e6107bc565b005b34801561022c57600080fd5b506102476004803603610242919081019061200c565b610908565b6040516102559291906125d8565b60405180910390f35b34801561026a57600080fd5b5061028560048036036102809190810190612286565b610bf8565b005b34801561029357600080fd5b506102ae60048036036102a99190810190612071565b611092565b005b3480156102bc57600080fd5b506102d760048036036102d29190810190612205565b6110b3565b6040516102e49190612571565b60405180910390f35b3480156102f957600080fd5b50610314600480360361030f919081019061200c565b611131565b6040516103219190612712565b60405180910390f35b34801561033657600080fd5b50610351600480360361034c9190810190612205565b6111b5565b6040516103639695949392919061262a565b60405180910390f35b34801561037857600080fd5b50610393600480360361038e919081019061213b565b611298565b005b3480156103a157600080fd5b506103bc60048036036103b791908101906120c0565b6113d0565b005b3480156103ca57600080fd5b506103e560048036036103e0919081019061222e565b6113f8565b005b3480156103f357600080fd5b5061040e60048036036104099190810190612035565b61145b565b60405161041b919061260f565b60405180910390f35b6000806000837bffffffffffffffffffffffffffffffffffffffffffffffffffffffff19167bffffffffffffffffffffffffffffffffffffffffffffffffffffffff1916815260200190815260200160002060009054906101000a900460ff169050919050565b6000610496826114ef565b15156104a157600080fd5b6002600083815260200190815260200160002060009054906101000a900473ffffffffffffffffffffffffffffffffffffffff169050919050565b60006104e7826110b3565b90508073ffffffffffffffffffffffffffffffffffffffff168373ffffffffffffffffffffffffffffffffffffffff161415151561052457600080fd5b8073ffffffffffffffffffffffffffffffffffffffff163373ffffffffffffffffffffffffffffffffffffffff1614806105645750610563813361145b565b5b151561056f57600080fd5b826002600084815260200190815260200160002060006101000a81548173ffffffffffffffffffffffffffffffffffffffff021916908373ffffffffffffffffffffffffffffffffffffffff160217905550818373ffffffffffffffffffffffffffffffffffffffff168273ffffffffffffffffffffffffffffffffffffffff167f8c5be1e5ebec7d5bd14f71427d1e84f3dd0314c0f7b2291e5b200ac8c7c3b92560405160405180910390a4505050565b6000806000600854341015151561066d576040517f08c379a0000000000000000000000000000000000000000000000000000000008152600401610664906126b2565b60405180910390fd5b6001925061067d6001600a611561565b60ff16915060ff1691506106c86040805190810160405280600581526020017f70757070790000000000000000000000000000000000000000000000000000008152508484846115b2565b505050565b60076020528060005260406000206000915054906101000a900460ff1681565b6106f7338261167c565b151561070257600080fd5b600073ffffffffffffffffffffffffffffffffffffffff168273ffffffffffffffffffffffffffffffffffffffff161415151561073e57600080fd5b6107488382611711565b6107528382611814565b61075c8282611943565b808273ffffffffffffffffffffffffffffffffffffffff168473ffffffffffffffffffffffffffffffffffffffff167fddf252ad1be2c89b69c2b068fc378daa952ba7f163c4a11628f55a4df523b3ef60405160405180910390a4505050565b6000806000600760003373ffffffffffffffffffffffffffffffffffffffff1673ffffffffffffffffffffffffffffffffffffffff16815260200190815260200160002060009054906101000a900460ff16151515610850576040517f08c379a000000000000000000000000000000000000000000000000000000000815260040161084790612692565b60405180910390fd5b6001925061086060016005611561565b60ff16915060ff1691506001600760003373ffffffffffffffffffffffffffffffffffffffff1673ffffffffffffffffffffffffffffffffffffffff16815260200190815260200160002060006101000a81548160ff0219169083151502179055506109036040805190810160405280600581526020017f70757070790000000000000000000000000000000000000000000000000000008152508484846115b2565b505050565b606080606080600080600061091c88611131565b60405190808252806020026020018201604052801561094f57816020015b606081526020019060019003908161093a5790505b50945061095b88611131565b60405190808252806020026020018201604052801561099457816020015b610981611dbe565b8152602001906001900390816109795790505b50935060009250600091505b600680549050821015610be8576109b6826110b3565b73ffffffffffffffffffffffffffffffffffffffff168873ffffffffffffffffffffffffffffffffffffffff161415610bdb576006828154811015156109f857fe5b90600052602060002090600602019050806000018054600181600116156101000203166002900480601f016020809104026020016040519081016040528092919081815260200182805460018160011615610100020316600290048015610aa05780601f10610a7557610100808354040283529160200191610aa0565b820191906000526020600020905b815481529060010190602001808311610a8357829003601f168201915b50505050508584815181101515610ab357fe5b906020019060200201819052508060010154846000815181101515610ad457fe5b9060200190602002015184600581101515610aeb57fe5b6020020181815250508060020154846001815181101515610b0857fe5b9060200190602002015184600581101515610b1f57fe5b6020020181815250508060030154846002815181101515610b3c57fe5b9060200190602002015184600581101515610b5357fe5b6020020181815250508060040154846003815181101515610b7057fe5b9060200190602002015184600581101515610b8757fe5b6020020181815250508060050154846004815181101515610ba457fe5b9060200190602002015184600581101515610bbb57fe5b602002018181525050610bd8600184611a9d90919063ffffffff16565b92505b81806001019250506109a0565b8484965096505050505050915091565b600080600080600080600088610c0d816110b3565b50888a14151515610c53576040517f08c379a0000000000000000000000000000000000000000000000000000000008152600401610c4a906126d2565b60405180910390fd5b610c5c896110b3565b73ffffffffffffffffffffffffffffffffffffffff16610c7b8b6110b3565b73ffffffffffffffffffffffffffffffffffffffff1614151515610cd4576040517f08c379a0000000000000000000000000000000000000000000000000000000008152600401610ccb906126f2565b60405180910390fd5b60068a815481101515610ce357fe5b90600052602060002090600602019750600689815481101515610d0257fe5b90600052602060002090600602019650610d1e60006003611561565b60ff16955060ff1695508660030154868960020154011115610d9f57610d5260018960010154611a9d90919063ffffffff16565b8860010181905550610d7260018960040154611a9d90919063ffffffff16565b8860040181905550610d9260018860050154611a9d90919063ffffffff16565b8760050181905550610e13565b8660020154858960030154011015610e1257610dc960018860010154611a9d90919063ffffffff16565b8760010181905550610de960018860040154611a9d90919063ffffffff16565b8760040181905550610e0960018960050154611a9d90919063ffffffff16565b88600501819055505b5b600560068b815481101515610e2457fe5b90600052602060002090600602016001015414156110865761103e60068b815481101515610e4e57fe5b906000526020600020906006020160c06040519081016040529081600082018054600181600116156101000203166002900480601f016020809104026020016040519081016040528092919081815260200182805460018160011615610100020316600290048015610f015780601f10610ed657610100808354040283529160200191610f01565b820191906000526020600020905b815481529060010190602001808311610ee457829003601f168201915b505050505081526020016001820154815260200160028201548152602001600382015481526020016004820154815260200160058201548152505060068b815481101515610f4b57fe5b906000526020600020906006020160c06040519081016040529081600082018054600181600116156101000203166002900480601f016020809104026020016040519081016040528092919081815260200182805460018160011615610100020316600290048015610ffe5780601f10610fd357610100808354040283529160200191610ffe565b820191906000526020600020905b815481529060010190602001808311610fe157829003601f168201915b5050505050815260200160018201548152602001600282015481526020016003820154815260200160048201548152602001600582015481525050611abe565b9350935093506110856040805190810160405280600b81526020017f70757070795f62726565640000000000000000000000000000000000000000008152508585856115b2565b5b50505050505050505050565b6110ae83838360206040519081016040528060008152506113d0565b505050565b6000806001600084815260200190815260200160002060009054906101000a900473ffffffffffffffffffffffffffffffffffffffff169050600073ffffffffffffffffffffffffffffffffffffffff168173ffffffffffffffffffffffffffffffffffffffff161415151561112857600080fd5b80915050919050565b60008073ffffffffffffffffffffffffffffffffffffffff168273ffffffffffffffffffffffffffffffffffffffff161415151561116e57600080fd5b600360008373ffffffffffffffffffffffffffffffffffffffff1673ffffffffffffffffffffffffffffffffffffffff168152602001908152602001600020549050919050565b6006818154811015156111c457fe5b9060005260206000209060060201600091509050806000018054600181600116156101000203166002900480601f0160208091040260200160405190810160405280929190818152602001828054600181600116156101000203166002900480156112705780601f1061124557610100808354040283529160200191611270565b820191906000526020600020905b81548152906001019060200180831161125357829003601f168201915b5050505050908060010154908060020154908060030154908060040154908060050154905086565b3373ffffffffffffffffffffffffffffffffffffffff168273ffffffffffffffffffffffffffffffffffffffff16141515156112d357600080fd5b80600460003373ffffffffffffffffffffffffffffffffffffffff1673ffffffffffffffffffffffffffffffffffffffff16815260200190815260200160002060008473ffffffffffffffffffffffffffffffffffffffff1673ffffffffffffffffffffffffffffffffffffffff16815260200190815260200160002060006101000a81548160ff0219169083151502179055508173ffffffffffffffffffffffffffffffffffffffff163373ffffffffffffffffffffffffffffffffffffffff167f17307eab39ab6107e8899845ad3d59bd9653f200f220920489ca2b5937696c31836040516113c4919061260f565b60405180910390a35050565b6113db8484846106ed565b6113e784848484611b6a565b15156113f257600080fd5b50505050565b6002838160068281548110151561140b57fe5b9060005260206000209050505084611422816110b3565b50848460068881548110151561143457fe5b90600052602060002090600602016000019190611452929190611de1565b50505050505050565b6000600460008473ffffffffffffffffffffffffffffffffffffffff1673ffffffffffffffffffffffffffffffffffffffff16815260200190815260200160002060008373ffffffffffffffffffffffffffffffffffffffff1673ffffffffffffffffffffffffffffffffffffffff16815260200190815260200160002060009054906101000a900460ff16905092915050565b6000806001600084815260200190815260200160002060009054906101000a900473ffffffffffffffffffffffffffffffffffffffff169050600073ffffffffffffffffffffffffffffffffffffffff168173ffffffffffffffffffffffffffffffffffffffff161415915050919050565b600080600080858560ff1660014303406001900460ff1681151561158157fe5b06019150858560ff1660024303406001900460ff1681151561159f57fe5b0601905081819350935050509250929050565b60006006805490509050600660c060405190810160405280878152602001868152602001858152602001848152602001600081526020016000815250908060018154018082558091505090600182039060005260206000209060060201600090919290919091506000820151816000019080519060200190611635929190611e61565b506020820151816001015560408201518160020155606082015181600301556080820151816004015560a082015181600501555050506116753382611cba565b5050505050565b600080611688836110b3565b90508073ffffffffffffffffffffffffffffffffffffffff168473ffffffffffffffffffffffffffffffffffffffff1614806116f757508373ffffffffffffffffffffffffffffffffffffffff166116df8461048b565b73ffffffffffffffffffffffffffffffffffffffff16145b806117085750611707818561145b565b5b91505092915050565b8173ffffffffffffffffffffffffffffffffffffffff16611731826110b3565b73ffffffffffffffffffffffffffffffffffffffff1614151561175357600080fd5b600073ffffffffffffffffffffffffffffffffffffffff166002600083815260200190815260200160002060009054906101000a900473ffffffffffffffffffffffffffffffffffffffff1673ffffffffffffffffffffffffffffffffffffffff161415156118105760006002600083815260200190815260200160002060006101000a81548173ffffffffffffffffffffffffffffffffffffffff021916908373ffffffffffffffffffffffffffffffffffffffff1602179055505b5050565b8173ffffffffffffffffffffffffffffffffffffffff16611834826110b3565b73ffffffffffffffffffffffffffffffffffffffff1614151561185657600080fd5b6118a96001600360008573ffffffffffffffffffffffffffffffffffffffff1673ffffffffffffffffffffffffffffffffffffffff16815260200190815260200160002054611d6090919063ffffffff16565b600360008473ffffffffffffffffffffffffffffffffffffffff1673ffffffffffffffffffffffffffffffffffffffff1681526020019081526020016000208190555060006001600083815260200190815260200160002060006101000a81548173ffffffffffffffffffffffffffffffffffffffff021916908373ffffffffffffffffffffffffffffffffffffffff1602179055505050565b600073ffffffffffffffffffffffffffffffffffffffff166001600083815260200190815260200160002060009054906101000a900473ffffffffffffffffffffffffffffffffffffffff1673ffffffffffffffffffffffffffffffffffffffff161415156119b157600080fd5b816001600083815260200190815260200160002060006101000a81548173ffffffffffffffffffffffffffffffffffffffff021916908373ffffffffffffffffffffffffffffffffffffffff160217905550611a566001600360008573ffffffffffffffffffffffffffffffffffffffff1673ffffffffffffffffffffffffffffffffffffffff16815260200190815260200160002054611a9d90919063ffffffff16565b600360008473ffffffffffffffffffffffffffffffffffffffff1673ffffffffffffffffffffffffffffffffffffffff168152602001908152602001600020819055505050565b6000808284019050838110151515611ab457600080fd5b8091505092915050565b600080600080600080611af56002611ae789602001518b60200151611a9d90919063ffffffff16565b611d8190919063ffffffff16565b9250611b256002611b1789604001518b60400151611a9d90919063ffffffff16565b611d8190919063ffffffff16565b9150611b556002611b4789606001518b60600151611a9d90919063ffffffff16565b611d8190919063ffffffff16565b90508282829550955095505050509250925092565b600080611b8c8573ffffffffffffffffffffffffffffffffffffffff16611dab565b1515611b9b5760019150611cb1565b8473ffffffffffffffffffffffffffffffffffffffff1663150b7a02338887876040518563ffffffff167c0100000000000000000000000000000000000000000000000000000000028152600401611bf6949392919061258c565b602060405180830381600087803b158015611c1057600080fd5b505af1158015611c24573d6000803e3d6000fd5b505050506040513d601f19601f82011682018060405250611c4891908101906121dc565b905063150b7a027c0100000000000000000000000000000000000000000000000000000000027bffffffffffffffffffffffffffffffffffffffffffffffffffffffff1916817bffffffffffffffffffffffffffffffffffffffffffffffffffffffff19161491505b50949350505050565b600073ffffffffffffffffffffffffffffffffffffffff168273ffffffffffffffffffffffffffffffffffffffff1614151515611cf657600080fd5b611d008282611943565b808273ffffffffffffffffffffffffffffffffffffffff16600073ffffffffffffffffffffffffffffffffffffffff167fddf252ad1be2c89b69c2b068fc378daa952ba7f163c4a11628f55a4df523b3ef60405160405180910390a45050565b600080838311151515611d7257600080fd5b82840390508091505092915050565b600080600083111515611d9357600080fd5b8284811515611d9e57fe5b0490508091505092915050565b600080823b905060008111915050919050565b60a060405190810160405280600590602082028038833980820191505090505090565b828054600181600116156101000203166002900490600052602060002090601f016020900481019282601f10611e2257803560ff1916838001178555611e50565b82800160010185558215611e50579182015b82811115611e4f578235825591602001919060010190611e34565b5b509050611e5d9190611ee1565b5090565b828054600181600116156101000203166002900490600052602060002090601f016020900481019282601f10611ea257805160ff1916838001178555611ed0565b82800160010185558215611ed0579182015b82811115611ecf578251825591602001919060010190611eb4565b5b509050611edd9190611ee1565b5090565b611f0391905b80821115611eff576000816000905550600101611ee7565b5090565b90565b6000611f12823561283e565b905092915050565b6000611f26823561285e565b905092915050565b6000611f3a823561286a565b905092915050565b6000611f4e825161286a565b905092915050565b600082601f8301121515611f6957600080fd5b8135611f7c611f778261275a565b61272d565b91508082526020830160208301858383011115611f9857600080fd5b611fa38382846128a0565b50505092915050565b60008083601f8401121515611fc057600080fd5b8235905067ffffffffffffffff811115611fd957600080fd5b602083019150836001820283011115611ff157600080fd5b9250929050565b60006120048235612896565b905092915050565b60006020828403121561201e57600080fd5b600061202c84828501611f06565b91505092915050565b6000806040838503121561204857600080fd5b600061205685828601611f06565b925050602061206785828601611f06565b9150509250929050565b60008060006060848603121561208657600080fd5b600061209486828701611f06565b93505060206120a586828701611f06565b92505060406120b686828701611ff8565b9150509250925092565b600080600080608085870312156120d657600080fd5b60006120e487828801611f06565b94505060206120f587828801611f06565b935050604061210687828801611ff8565b925050606085013567ffffffffffffffff81111561212357600080fd5b61212f87828801611f56565b91505092959194509250565b6000806040838503121561214e57600080fd5b600061215c85828601611f06565b925050602061216d85828601611f1a565b9150509250929050565b6000806040838503121561218a57600080fd5b600061219885828601611f06565b92505060206121a985828601611ff8565b9150509250929050565b6000602082840312156121c557600080fd5b60006121d384828501611f2e565b91505092915050565b6000602082840312156121ee57600080fd5b60006121fc84828501611f42565b91505092915050565b60006020828403121561221757600080fd5b600061222584828501611ff8565b91505092915050565b60008060006040848603121561224357600080fd5b600061225186828701611ff8565b935050602084013567ffffffffffffffff81111561226e57600080fd5b61227a86828701611fac565b92509250509250925092565b6000806040838503121561229957600080fd5b60006122a785828601611ff8565b92505060206122b885828601611ff8565b9150509250929050565b6122cb81612808565b82525050565b60006122dc826127aa565b8084526020840193506122ee83612786565b60005b828110156123205761230486835161239a565b61230d826127e1565b915060a0860195506001810190506122f1565b50849250505092915050565b6000612337826127b5565b8084526020840193508360208202850161235085612793565b60005b8481101561238957838303885261236b83835161242a565b9250612376826127ee565b9150602088019750600181019050612353565b508196508694505050505092915050565b6123a3816127c0565b6123ac826127a0565b60005b828110156123de576123c2858351612562565b6123cb826127fb565b91506020850194506001810190506123af565b5050505050565b6123ee81612828565b82525050565b60006123ff826127cb565b8084526124138160208601602086016128af565b61241c816128e2565b602085010191505092915050565b6000612435826127d6565b8084526124498160208601602086016128af565b612452816128e2565b602085010191505092915050565b6000602982527f616464726573732068617320616c726561647920636c61696d6564206120667260208301527f65652062616c6c657200000000000000000000000000000000000000000000006040830152606082019050919050565b6000602082527f6e6f7420656e6f7567682065746865727320696e207472616e73616374696f6e6020830152604082019050919050565b6000601b82527f612062616c6c65722063616e277420666967687420697473656c6600000000006020830152604082019050919050565b6000601c82527f63616e277420666967687420796f7572206f776e2062616c6c657273000000006020830152604082019050919050565b61256b81612834565b82525050565b600060208201905061258660008301846122c2565b92915050565b60006080820190506125a160008301876122c2565b6125ae60208301866122c2565b6125bb6040830185612562565b81810360608301526125cd81846123f4565b905095945050505050565b600060408201905081810360008301526125f2818561232c565b9050818103602083015261260681846122d1565b90509392505050565b600060208201905061262460008301846123e5565b92915050565b600060c0820190508181036000830152612644818961242a565b90506126536020830188612562565b6126606040830187612562565b61266d6060830186612562565b61267a6080830185612562565b61268760a0830184612562565b979650505050505050565b600060208201905081810360008301526126ab81612460565b9050919050565b600060208201905081810360008301526126cb816124bd565b9050919050565b600060208201905081810360008301526126eb816124f4565b9050919050565b6000602082019050818103600083015261270b8161252b565b9050919050565b60006020820190506127276000830184612562565b92915050565b6000604051905081810181811067ffffffffffffffff8211171561275057600080fd5b8060405250919050565b600067ffffffffffffffff82111561277157600080fd5b601f19601f8301169050602081019050919050565b6000602082019050919050565b6000602082019050919050565b6000819050919050565b600081519050919050565b600081519050919050565b600060059050919050565b600081519050919050565b600081519050919050565b6000602082019050919050565b6000602082019050919050565b6000602082019050919050565b600073ffffffffffffffffffffffffffffffffffffffff82169050919050565b60008115159050919050565b6000819050919050565b600073ffffffffffffffffffffffffffffffffffffffff82169050919050565b60008115159050919050565b60007fffffffff0000000000000000000000000000000000000000000000000000000082169050919050565b6000819050919050565b82818337600083830152505050565b60005b838110156128cd5780820151818401526020810190506128b2565b838111156128dc576000848401525b50505050565b6000601f19601f83011690509190505600a265627a7a723058200908b0459e1871726048ec32ca354c9e54997932b9eaeb2e12a2620fb38d6b176c6578706572696d656e74616cf50037",
  "source": "pragma solidity ^0.4.24;\npragma experimental ABIEncoderV2;\n\nimport './ERC721.sol';\n\ncontract CryptoBallers is ERC721 {\n\n    struct Baller {\n        string name;\n        uint level;\n        uint offenseSkill;\n        uint defenseSkill;\n        uint winCount;\n        uint lossCount;\n    }\n\n    address owner;\n    Baller[] public ballers;\n\n    // Mapping for if address has claimed their free baller\n    mapping(address => bool) public claimedFreeBaller;\n\n    // Fee for buying a baller\n    uint ballerFee = 0.10 ether;\n\n    /**\n    * @dev Ensures ownership of the specified token ID\n    * @param _tokenId uint256 ID of the token to check\n    */\n    modifier onlyOwnerOf(uint256 _tokenId) {\n        // TODO add your code\n        msg.sender == ownerOf(_tokenId);\n        _;\n    }\n\n    /**\n    * @dev Ensures ownership of contract\n    */\n    modifier onlyOwner() {\n        // TODO add your code\n        msg.sender == owner;\n        _;\n    }\n\n    /**\n    * @dev Ensures baller has level above specified level\n    * @param _level uint level that the baller needs to be above\n    * @param _ballerId uint ID of the Baller to check\n    */\n    modifier aboveLevel(uint _level, uint _ballerId) {\n        // TODO add your code\n        ballers[_ballerId].level > _level;\n        _;\n    }\n\n    constructor() public {\n        owner = msg.sender;\n    }\n\n    /**\n    * @dev Allows user to claim first free baller, ensure no address can claim more than one\n    */\n    function claimFreeBaller() public {\n        // TODO add your code\n        require(!claimedFreeBaller[msg.sender], \"address has already claimed a free baller\");\n        \n        uint level = 1;\n        (uint offense, uint defense) = _random(1,5);\n        claimedFreeBaller[msg.sender] = true;\n        _createBaller(\"puppy\", level, offense, defense);\n    }\n\n    /**\n    * @dev Allows user to buy baller with set attributes\n    */\n    function buyBaller() public payable {\n        // TODO add your code\n        require(msg.value >= ballerFee, \"not enough ethers in transaction\");\n        \n        uint level = 1;\n        (uint offense, uint defense) = _random(1,10);\n        _createBaller(\"puppy\", level, offense, defense);\n    }\n\n    function getAllCryptoBallers(address _from) public view returns (string[], uint[5][]) {\n\n        string[] memory name = new string[](balanceOf(_from));\n        uint256[5][] memory specs = new uint256[5][](balanceOf(_from));\n        uint j = 0;\n\n        for (uint i = 0; i < ballers.length; i++) {\n\n            if (_from == ownerOf(i)) {\n                Baller storage tmp_baller = ballers[i];\n                \n                name[j] = tmp_baller.name;\n                specs[0][j] = tmp_baller.level;\n                specs[1][j] = tmp_baller.offenseSkill;\n                specs[2][j] = tmp_baller.defenseSkill;\n                specs[3][j] = tmp_baller.winCount;\n                specs[4][j] = tmp_baller.lossCount;\n                j = j.add(1);\n            }\n        }\n        return (name, specs);\n    }\n\n    /**\n    * @dev Play a game with your baller and an opponent baller\n    * If your baller has more offensive skill than your opponent's defensive skill\n    * you win, your level goes up, the opponent loses, and vice versa.\n    * If you win and your baller reaches level 5, you are awarded a new baller with a mix of traits\n    * from your baller and your opponent's baller.\n    * @param _ballerId uint ID of the Baller initiating the game\n    * @param _opponentId uint ID that the baller needs to be above\n    */\n    function playBall(uint _ballerId, uint _opponentId) onlyOwnerOf(_ballerId) public {\n        // TODO add your code\n        require(_ballerId != _opponentId, \"a baller can't fight itself\");\n        require(ownerOf(_ballerId) != ownerOf(_opponentId), \"can't fight your own ballers\");\n\n        Baller storage player = ballers[_ballerId];\n        Baller storage opponent = ballers[_opponentId];\n        \n        // calculate random first strike advantage for player\n        (uint firstStrikeOffense, uint firstStrikeDefense) = _random(0,3);\n\n        if ((player.offenseSkill + firstStrikeOffense) > opponent.defenseSkill) {\n            player.level = player.level.add(1);\n            player.winCount = player.winCount.add(1);\n            opponent.lossCount = opponent.lossCount.add(1);\n        } else if ((player.defenseSkill + firstStrikeDefense) < opponent.offenseSkill) {\n            opponent.level = opponent.level.add(1);\n            opponent.winCount = opponent.winCount.add(1);\n            player.lossCount = player.lossCount.add(1);\n        }\n\n        if (ballers[_ballerId].level == 5) {\n            (uint level, uint attack, uint defense) = _breedBallers(ballers[_ballerId], ballers[_opponentId]);\n            _createBaller(\"puppy_breed\", level, attack, defense);\n        }\n    }\n\n    /**\n    * @dev Changes the name of your baller if they are above level two\n    * @param _ballerId uint ID of the Baller who's name you want to change\n    * @param _newName string new name you want to give to your Baller\n    */\n    function changeName(uint _ballerId, string _newName) external aboveLevel(2, _ballerId) onlyOwnerOf(_ballerId) {\n        // TODO add your code\n        ballers[_ballerId].name = _newName;\n    }\n\n    /**\n   * @dev Creates a baller based on the params given, adds them to the Baller array and mints a token\n   * @param _name string name of the Baller\n   * @param _level uint level of the Baller\n   * @param _offenseSkill offensive skill of the Baller\n   * @param _defenseSkill defensive skill of the Baller\n   */\n    function _createBaller(string _name, uint _level, uint _offenseSkill, uint _defenseSkill) internal {\n        // TODO add your code\n        uint256 tokenId = ballers.length;\n        ballers.push(Baller(_name, _level, _offenseSkill, _defenseSkill, 0, 0));\n        _mint(msg.sender, tokenId);\n    }\n\n    /**\n    * @dev Helper function for a new baller which averages the attributes of the level, attack, defense of the ballers\n    * @param _baller1 Baller first baller to average\n    * @param _baller2 Baller second baller to average\n    * @return tuple of level, attack and defense\n    */\n    function _breedBallers(Baller _baller1, Baller _baller2) internal pure returns (uint, uint, uint) {\n        uint level = _baller1.level.add(_baller2.level).div(2);\n        uint attack = _baller1.offenseSkill.add(_baller2.offenseSkill).div(2);\n        uint defense = _baller1.defenseSkill.add(_baller2.defenseSkill).div(2);\n        return (level, attack, defense);\n\n    }\n\n    function _random(uint8 floor, uint8 ceiling) private view returns (uint8, uint8) {\n        //TODO: build in a range for random\n        uint8 offense = uint8(blockhash(block.number-1))%ceiling + floor;\n        uint8 defense = uint8(blockhash(block.number-2))%ceiling + floor;\n        return (offense, defense);\n    }\n}",
  "sourcePath": "/home/sdirix/Documents/eap/eth-accelerator-assignments/week3/CryptoBallers/contracts/CryptoBallers.sol",
  "compiler": {
    "name": "solc",
    "version": "0.4.24+commit.e67f0147.Emscripten.clang"
  },
  "schemaVersion": "2.0.1",
  "updatedAt": "2018-12-14T18:31:13.426Z"
}