{
  "contractName": "CryptoBallers",
  "abi": [
    {
      "constant": true,
      "inputs": [
        {
          "name": "interfaceId",
          "type": "bytes4"
        }
      ],
      "name": "supportsInterface",
      "outputs": [
        {
          "name": "",
          "type": "bool"
        }
      ],
      "payable": false,
      "stateMutability": "view",
      "type": "function"
    },
    {
      "constant": true,
      "inputs": [
        {
          "name": "tokenId",
          "type": "uint256"
        }
      ],
      "name": "getApproved",
      "outputs": [
        {
          "name": "",
          "type": "address"
        }
      ],
      "payable": false,
      "stateMutability": "view",
      "type": "function"
    },
    {
      "constant": false,
      "inputs": [
        {
          "name": "to",
          "type": "address"
        },
        {
          "name": "tokenId",
          "type": "uint256"
        }
      ],
      "name": "approve",
      "outputs": [],
      "payable": false,
      "stateMutability": "nonpayable",
      "type": "function"
    },
    {
      "constant": true,
      "inputs": [
        {
          "name": "",
          "type": "address"
        }
      ],
      "name": "claimedFreeBaller",
      "outputs": [
        {
          "name": "",
          "type": "bool"
        }
      ],
      "payable": false,
      "stateMutability": "view",
      "type": "function"
    },
    {
      "constant": false,
      "inputs": [
        {
          "name": "from",
          "type": "address"
        },
        {
          "name": "to",
          "type": "address"
        },
        {
          "name": "tokenId",
          "type": "uint256"
        }
      ],
      "name": "transferFrom",
      "outputs": [],
      "payable": false,
      "stateMutability": "nonpayable",
      "type": "function"
    },
    {
      "constant": false,
      "inputs": [
        {
          "name": "from",
          "type": "address"
        },
        {
          "name": "to",
          "type": "address"
        },
        {
          "name": "tokenId",
          "type": "uint256"
        }
      ],
      "name": "safeTransferFrom",
      "outputs": [],
      "payable": false,
      "stateMutability": "nonpayable",
      "type": "function"
    },
    {
      "constant": true,
      "inputs": [
        {
          "name": "tokenId",
          "type": "uint256"
        }
      ],
      "name": "ownerOf",
      "outputs": [
        {
          "name": "",
          "type": "address"
        }
      ],
      "payable": false,
      "stateMutability": "view",
      "type": "function"
    },
    {
      "constant": true,
      "inputs": [
        {
          "name": "owner",
          "type": "address"
        }
      ],
      "name": "balanceOf",
      "outputs": [
        {
          "name": "",
          "type": "uint256"
        }
      ],
      "payable": false,
      "stateMutability": "view",
      "type": "function"
    },
    {
      "constant": true,
      "inputs": [
        {
          "name": "",
          "type": "uint256"
        }
      ],
      "name": "ballers",
      "outputs": [
        {
          "name": "name",
          "type": "string"
        },
        {
          "name": "level",
          "type": "uint256"
        },
        {
          "name": "offenseSkill",
          "type": "uint256"
        },
        {
          "name": "defenseSkill",
          "type": "uint256"
        },
        {
          "name": "winCount",
          "type": "uint256"
        },
        {
          "name": "lossCount",
          "type": "uint256"
        }
      ],
      "payable": false,
      "stateMutability": "view",
      "type": "function"
    },
    {
      "constant": false,
      "inputs": [
        {
          "name": "to",
          "type": "address"
        },
        {
          "name": "approved",
          "type": "bool"
        }
      ],
      "name": "setApprovalForAll",
      "outputs": [],
      "payable": false,
      "stateMutability": "nonpayable",
      "type": "function"
    },
    {
      "constant": false,
      "inputs": [
        {
          "name": "from",
          "type": "address"
        },
        {
          "name": "to",
          "type": "address"
        },
        {
          "name": "tokenId",
          "type": "uint256"
        },
        {
          "name": "_data",
          "type": "bytes"
        }
      ],
      "name": "safeTransferFrom",
      "outputs": [],
      "payable": false,
      "stateMutability": "nonpayable",
      "type": "function"
    },
    {
      "constant": true,
      "inputs": [
        {
          "name": "owner",
          "type": "address"
        },
        {
          "name": "operator",
          "type": "address"
        }
      ],
      "name": "isApprovedForAll",
      "outputs": [
        {
          "name": "",
          "type": "bool"
        }
      ],
      "payable": false,
      "stateMutability": "view",
      "type": "function"
    },
    {
      "inputs": [],
      "payable": false,
      "stateMutability": "nonpayable",
      "type": "constructor"
    },
    {
      "anonymous": false,
      "inputs": [],
      "name": "NewBaller",
      "type": "event"
    },
    {
      "anonymous": false,
      "inputs": [
        {
          "indexed": true,
          "name": "from",
          "type": "address"
        },
        {
          "indexed": true,
          "name": "to",
          "type": "address"
        },
        {
          "indexed": true,
          "name": "tokenId",
          "type": "uint256"
        }
      ],
      "name": "Transfer",
      "type": "event"
    },
    {
      "anonymous": false,
      "inputs": [
        {
          "indexed": true,
          "name": "owner",
          "type": "address"
        },
        {
          "indexed": true,
          "name": "approved",
          "type": "address"
        },
        {
          "indexed": true,
          "name": "tokenId",
          "type": "uint256"
        }
      ],
      "name": "Approval",
      "type": "event"
    },
    {
      "anonymous": false,
      "inputs": [
        {
          "indexed": true,
          "name": "owner",
          "type": "address"
        },
        {
          "indexed": true,
          "name": "operator",
          "type": "address"
        },
        {
          "indexed": false,
          "name": "approved",
          "type": "bool"
        }
      ],
      "name": "ApprovalForAll",
      "type": "event"
    },
    {
      "constant": false,
      "inputs": [],
      "name": "claimFreeBaller",
      "outputs": [],
      "payable": false,
      "stateMutability": "nonpayable",
      "type": "function"
    },
    {
      "constant": false,
      "inputs": [],
      "name": "buyBaller",
      "outputs": [],
      "payable": true,
      "stateMutability": "payable",
      "type": "function"
    },
    {
      "constant": false,
      "inputs": [
        {
          "name": "_from",
          "type": "address"
        }
      ],
      "name": "buyBallerWithToken",
      "outputs": [],
      "payable": true,
      "stateMutability": "payable",
      "type": "function"
    },
    {
      "constant": true,
      "inputs": [
        {
          "name": "_from",
          "type": "address"
        }
      ],
      "name": "getAllCryptoBallers",
      "outputs": [
        {
          "name": "",
          "type": "string[]"
        },
        {
          "name": "",
          "type": "uint256[5][]"
        }
      ],
      "payable": false,
      "stateMutability": "view",
      "type": "function"
    },
    {
      "constant": true,
      "inputs": [
        {
          "name": "_from",
          "type": "address"
        }
      ],
      "name": "getStructBaller",
      "outputs": [
        {
          "components": [
            {
              "name": "name",
              "type": "string"
            },
            {
              "name": "level",
              "type": "uint256"
            },
            {
              "name": "offenseSkill",
              "type": "uint256"
            },
            {
              "name": "defenseSkill",
              "type": "uint256"
            },
            {
              "name": "winCount",
              "type": "uint256"
            },
            {
              "name": "lossCount",
              "type": "uint256"
            }
          ],
          "name": "a",
          "type": "tuple[]"
        }
      ],
      "payable": false,
      "stateMutability": "view",
      "type": "function"
    },
    {
      "constant": true,
      "inputs": [],
      "name": "getAmountCryptoBallers",
      "outputs": [
        {
          "name": "",
          "type": "uint256"
        }
      ],
      "payable": false,
      "stateMutability": "view",
      "type": "function"
    },
    {
      "constant": false,
      "inputs": [
        {
          "name": "_ballerId",
          "type": "uint256"
        },
        {
          "name": "_opponentId",
          "type": "uint256"
        }
      ],
      "name": "playBall",
      "outputs": [],
      "payable": false,
      "stateMutability": "nonpayable",
      "type": "function"
    },
    {
      "constant": false,
      "inputs": [
        {
          "name": "_ballerId",
          "type": "uint256"
        },
        {
          "name": "_newName",
          "type": "string"
        }
      ],
      "name": "changeName",
      "outputs": [],
      "payable": false,
      "stateMutability": "nonpayable",
      "type": "function"
    }
  ],
  "bytecode": "0x608060405267016345785d8a000060085560016009553480156200002257600080fd5b50620000606301ffc9a77c010000000000000000000000000000000000000000000000000000000002620000e4640100000000026401000000009004565b6200009d6380ac58cd7c010000000000000000000000000000000000000000000000000000000002620000e4640100000000026401000000009004565b33600560006101000a81548173ffffffffffffffffffffffffffffffffffffffff021916908373ffffffffffffffffffffffffffffffffffffffff160217905550620001a2565b63ffffffff7c010000000000000000000000000000000000000000000000000000000002817bffffffffffffffffffffffffffffffffffffffffffffffffffffffff1916141515156200013657600080fd5b6001600080837bffffffffffffffffffffffffffffffffffffffffffffffffffffffff19167bffffffffffffffffffffffffffffffffffffffffffffffffffffffff1916815260200190815260200160002060006101000a81548160ff02191690831515021790555050565b612f3d80620001b26000396000f300608060405260043610610112576000357c0100000000000000000000000000000000000000000000000000000000900463ffffffff16806301ffc9a714610117578063081812fc14610154578063095ea7b31461019157806314d89576146101ba578063211ecee9146101c457806323b872dd146102015780632ec9a4c91461022a578063382a4d3f146102415780633849defa1461027f57806342842e0e146102a85780636352211e146102d157806370a082311461030e57806377482a431461034b5780639eaf2bd014610388578063a22cb465146103ca578063b88d4fde146103f3578063bfc9a1b01461041c578063c39cbef114610447578063dd54d6c214610470578063e985e9c51461048c575b600080fd5b34801561012357600080fd5b5061013e6004803603610139919081019061262e565b6104c9565b60405161014b9190612bda565b60405180910390f35b34801561016057600080fd5b5061017b60048036036101769190810190612680565b610530565b6040516101889190612b1a565b60405180910390f35b34801561019d57600080fd5b506101b860048036036101b391908101906125f2565b610581565b005b6101c26106c6565b005b3480156101d057600080fd5b506101eb60048036036101e69190810190612487565b610798565b6040516101f89190612bda565b60405180910390f35b34801561020d57600080fd5b50610228600480360361022391908101906124ec565b6107b8565b005b34801561023657600080fd5b5061023f610887565b005b34801561024d57600080fd5b5061026860048036036102639190810190612487565b6109f9565b604051610276929190612b81565b60405180910390f35b34801561028b57600080fd5b506102a660048036036102a19190810190612701565b610c3c565b005b3480156102b457600080fd5b506102cf60048036036102ca91908101906124ec565b6110d0565b005b3480156102dd57600080fd5b506102f860048036036102f39190810190612680565b6110f1565b6040516103059190612b1a565b60405180910390f35b34801561031a57600080fd5b5061033560048036036103309190810190612487565b61116f565b6040516103429190612cfd565b60405180910390f35b34801561035757600080fd5b50610372600480360361036d9190810190612487565b6111f3565b60405161037f9190612bb8565b60405180910390f35b34801561039457600080fd5b506103af60048036036103aa9190810190612680565b611456565b6040516103c196959493929190612bf5565b60405180910390f35b3480156103d657600080fd5b506103f160048036036103ec91908101906125b6565b611539565b005b3480156103ff57600080fd5b5061041a6004803603610415919081019061253b565b611671565b005b34801561042857600080fd5b50610431611699565b60405161043e9190612cfd565b60405180910390f35b34801561045357600080fd5b5061046e600480360361046991908101906126a9565b6116a6565b005b61048a60048036036104859190810190612487565b611709565b005b34801561049857600080fd5b506104b360048036036104ae91908101906124b0565b6118ab565b6040516104c09190612bda565b60405180910390f35b6000806000837bffffffffffffffffffffffffffffffffffffffffffffffffffffffff19167bffffffffffffffffffffffffffffffffffffffffffffffffffffffff1916815260200190815260200160002060009054906101000a900460ff169050919050565b600061053b8261193f565b151561054657600080fd5b6002600083815260200190815260200160002060009054906101000a900473ffffffffffffffffffffffffffffffffffffffff169050919050565b600061058c826110f1565b90508073ffffffffffffffffffffffffffffffffffffffff168373ffffffffffffffffffffffffffffffffffffffff16141515156105c957600080fd5b8073ffffffffffffffffffffffffffffffffffffffff163373ffffffffffffffffffffffffffffffffffffffff161480610609575061060881336118ab565b5b151561061457600080fd5b826002600084815260200190815260200160002060006101000a81548173ffffffffffffffffffffffffffffffffffffffff021916908373ffffffffffffffffffffffffffffffffffffffff160217905550818373ffffffffffffffffffffffffffffffffffffffff168273ffffffffffffffffffffffffffffffffffffffff167f8c5be1e5ebec7d5bd14f71427d1e84f3dd0314c0f7b2291e5b200ac8c7c3b92560405160405180910390a4505050565b60008060006008543410151515610712576040517f08c379a000000000000000000000000000000000000000000000000000000000815260040161070990612c9d565b60405180910390fd5b600192506107226001600a6119b1565b915091506107676040805190810160405280600581526020017f70757070790000000000000000000000000000000000000000000000000000008152508484846119f6565b7ff544f5d8102ee587874c6fedf7aa3b8fabd32c4ed8429d97ef0b2b4f34e86e7960405160405180910390a1505050565b60076020528060005260406000206000915054906101000a900460ff1681565b6107c23382611ac0565b15156107cd57600080fd5b600073ffffffffffffffffffffffffffffffffffffffff168273ffffffffffffffffffffffffffffffffffffffff161415151561080957600080fd5b6108138382611b55565b61081d8382611c58565b6108278282611d87565b808273ffffffffffffffffffffffffffffffffffffffff168473ffffffffffffffffffffffffffffffffffffffff167fddf252ad1be2c89b69c2b068fc378daa952ba7f163c4a11628f55a4df523b3ef60405160405180910390a4505050565b6000806000600760003373ffffffffffffffffffffffffffffffffffffffff1673ffffffffffffffffffffffffffffffffffffffff16815260200190815260200160002060009054906101000a900460ff1615151561091b576040517f08c379a000000000000000000000000000000000000000000000000000000000815260040161091290612c5d565b60405180910390fd5b6001925061092b600160056119b1565b915091506001600760003373ffffffffffffffffffffffffffffffffffffffff1673ffffffffffffffffffffffffffffffffffffffff16815260200190815260200160002060006101000a81548160ff0219169083151502179055506109c86040805190810160405280600581526020017f70757070790000000000000000000000000000000000000000000000000000008152508484846119f6565b7ff544f5d8102ee587874c6fedf7aa3b8fabd32c4ed8429d97ef0b2b4f34e86e7960405160405180910390a1505050565b6060806060806000806000610a0d8861116f565b604051908082528060200260200182016040528015610a4057816020015b6060815260200190600190039081610a2b5790505b509450610a4c8861116f565b604051908082528060200260200182016040528015610a8557816020015b610a72612202565b815260200190600190039081610a6a5790505b50935060009250600091505b600680549050821015610c2c57610aa7826110f1565b73ffffffffffffffffffffffffffffffffffffffff168873ffffffffffffffffffffffffffffffffffffffff161415610c1f57600682815481101515610ae957fe5b90600052602060002090600602019050806000018054600181600116156101000203166002900480601f016020809104026020016040519081016040528092919081815260200182805460018160011615610100020316600290048015610b915780601f10610b6657610100808354040283529160200191610b91565b820191906000526020600020905b815481529060010190602001808311610b7457829003601f168201915b50505050508584815181101515610ba457fe5b9060200190602002018190525060a0604051908101604052808260010154815260200182600201548152602001826003015481526020018260040154815260200182600501548152508484815181101515610bfb57fe5b90602001906020020181905250610c1c600184611ee190919063ffffffff16565b92505b8180600101925050610a91565b8484965096505050505050915091565b600080600080600080600088610c51816110f1565b50888a14151515610c97576040517f08c379a0000000000000000000000000000000000000000000000000000000008152600401610c8e90612cbd565b60405180910390fd5b610ca0896110f1565b73ffffffffffffffffffffffffffffffffffffffff16610cbf8b6110f1565b73ffffffffffffffffffffffffffffffffffffffff1614151515610d18576040517f08c379a0000000000000000000000000000000000000000000000000000000008152600401610d0f90612cdd565b60405180910390fd5b60068a815481101515610d2757fe5b90600052602060002090600602019750600689815481101515610d4657fe5b90600052602060002090600602019650610d62600060036119b1565b955095508660030154868960020154011115610ddd57610d9060018960010154611ee190919063ffffffff16565b8860010181905550610db060018960040154611ee190919063ffffffff16565b8860040181905550610dd060018860050154611ee190919063ffffffff16565b8760050181905550610e51565b8660020154858960030154011015610e5057610e0760018860010154611ee190919063ffffffff16565b8760010181905550610e2760018860040154611ee190919063ffffffff16565b8760040181905550610e4760018960050154611ee190919063ffffffff16565b88600501819055505b5b600560068b815481101515610e6257fe5b90600052602060002090600602016001015414156110c45761107c60068b815481101515610e8c57fe5b906000526020600020906006020160c06040519081016040529081600082018054600181600116156101000203166002900480601f016020809104026020016040519081016040528092919081815260200182805460018160011615610100020316600290048015610f3f5780601f10610f1457610100808354040283529160200191610f3f565b820191906000526020600020905b815481529060010190602001808311610f2257829003601f168201915b505050505081526020016001820154815260200160028201548152602001600382015481526020016004820154815260200160058201548152505060068b815481101515610f8957fe5b906000526020600020906006020160c06040519081016040529081600082018054600181600116156101000203166002900480601f01602080910402602001604051908101604052809291908181526020018280546001816001161561010002031660029004801561103c5780601f106110115761010080835404028352916020019161103c565b820191906000526020600020905b81548152906001019060200180831161101f57829003601f168201915b5050505050815260200160018201548152602001600282015481526020016003820154815260200160048201548152602001600582015481525050611f02565b9350935093506110c36040805190810160405280600b81526020017f70757070795f62726565640000000000000000000000000000000000000000008152508585856119f6565b5b50505050505050505050565b6110ec8383836020604051908101604052806000815250611671565b505050565b6000806001600084815260200190815260200160002060009054906101000a900473ffffffffffffffffffffffffffffffffffffffff169050600073ffffffffffffffffffffffffffffffffffffffff168173ffffffffffffffffffffffffffffffffffffffff161415151561116657600080fd5b80915050919050565b60008073ffffffffffffffffffffffffffffffffffffffff168273ffffffffffffffffffffffffffffffffffffffff16141515156111ac57600080fd5b600360008373ffffffffffffffffffffffffffffffffffffffff1673ffffffffffffffffffffffffffffffffffffffff168152602001908152602001600020549050919050565b60608060008060006112048661116f565b60405190808252806020026020018201604052801561123d57816020015b61122a612225565b8152602001906001900390816112225790505b50935060009250600091505b60068054905082101561144a5761125f826110f1565b73ffffffffffffffffffffffffffffffffffffffff168673ffffffffffffffffffffffffffffffffffffffff16141561143d576006828154811015156112a157fe5b90600052602060002090600602019050806000018054600181600116156101000203166002900480601f0160208091040260200160405190810160405280929190818152602001828054600181600116156101000203166002900480156113495780601f1061131e57610100808354040283529160200191611349565b820191906000526020600020905b81548152906001019060200180831161132c57829003601f168201915b5050505050848481518110151561135c57fe5b90602001906020020151600001819052508060010154848481518110151561138057fe5b906020019060200201516020018181525050806002015484848151811015156113a557fe5b906020019060200201516040018181525050806003015484848151811015156113ca57fe5b906020019060200201516060018181525050806004015484848151811015156113ef57fe5b9060200190602002015160800181815250508060050154848481518110151561141457fe5b9060200190602002015160a001818152505061143a600184611ee190919063ffffffff16565b92505b8180600101925050611249565b83945050505050919050565b60068181548110151561146557fe5b9060005260206000209060060201600091509050806000018054600181600116156101000203166002900480601f0160208091040260200160405190810160405280929190818152602001828054600181600116156101000203166002900480156115115780601f106114e657610100808354040283529160200191611511565b820191906000526020600020905b8154815290600101906020018083116114f457829003601f168201915b5050505050908060010154908060020154908060030154908060040154908060050154905086565b3373ffffffffffffffffffffffffffffffffffffffff168273ffffffffffffffffffffffffffffffffffffffff161415151561157457600080fd5b80600460003373ffffffffffffffffffffffffffffffffffffffff1673ffffffffffffffffffffffffffffffffffffffff16815260200190815260200160002060008473ffffffffffffffffffffffffffffffffffffffff1673ffffffffffffffffffffffffffffffffffffffff16815260200190815260200160002060006101000a81548160ff0219169083151502179055508173ffffffffffffffffffffffffffffffffffffffff163373ffffffffffffffffffffffffffffffffffffffff167f17307eab39ab6107e8899845ad3d59bd9653f200f220920489ca2b5937696c31836040516116659190612bda565b60405180910390a35050565b61167c8484846107b8565b61168884848484611fae565b151561169357600080fd5b50505050565b6000600680549050905090565b600283816006828154811015156116b957fe5b90600052602060002090505050846116d0816110f1565b5084846006888154811015156116e257fe5b9060005260206000209060060201600001919061170092919061225c565b50505050505050565b600080600080600080600080600297506009548810151515611760576040517f08c379a000000000000000000000000000000000000000000000000000000000815260040161175790612c7d565b60405180910390fd5b8796508695508660090194506001935061177a86866119b1565b925092506006805490509050600660c0604051908101604052806040805190810160405280600581526020017f707570707900000000000000000000000000000000000000000000000000000081525081526020018681526020018581526020018481526020016000815260200160008152509080600181540180825580915050906001820390600052602060002090600602016000909192909190915060008201518160000190805190602001906118349291906122dc565b506020820151816001015560408201518160020155606082015181600301556080820151816004015560a0820151816005015550505061187489826120fe565b7ff544f5d8102ee587874c6fedf7aa3b8fabd32c4ed8429d97ef0b2b4f34e86e7960405160405180910390a1505050505050505050565b6000600460008473ffffffffffffffffffffffffffffffffffffffff1673ffffffffffffffffffffffffffffffffffffffff16815260200190815260200160002060008373ffffffffffffffffffffffffffffffffffffffff1673ffffffffffffffffffffffffffffffffffffffff16815260200190815260200160002060009054906101000a900460ff16905092915050565b6000806001600084815260200190815260200160002060009054906101000a900473ffffffffffffffffffffffffffffffffffffffff169050600073ffffffffffffffffffffffffffffffffffffffff168173ffffffffffffffffffffffffffffffffffffffff161415915050919050565b60008060008085856001430340600190048115156119cb57fe5b0601915085856002430340600190048115156119e357fe5b0601905081819350935050509250929050565b60006006805490509050600660c060405190810160405280878152602001868152602001858152602001848152602001600081526020016000815250908060018154018082558091505090600182039060005260206000209060060201600090919290919091506000820151816000019080519060200190611a799291906122dc565b506020820151816001015560408201518160020155606082015181600301556080820151816004015560a08201518160050155505050611ab933826120fe565b5050505050565b600080611acc836110f1565b90508073ffffffffffffffffffffffffffffffffffffffff168473ffffffffffffffffffffffffffffffffffffffff161480611b3b57508373ffffffffffffffffffffffffffffffffffffffff16611b2384610530565b73ffffffffffffffffffffffffffffffffffffffff16145b80611b4c5750611b4b81856118ab565b5b91505092915050565b8173ffffffffffffffffffffffffffffffffffffffff16611b75826110f1565b73ffffffffffffffffffffffffffffffffffffffff16141515611b9757600080fd5b600073ffffffffffffffffffffffffffffffffffffffff166002600083815260200190815260200160002060009054906101000a900473ffffffffffffffffffffffffffffffffffffffff1673ffffffffffffffffffffffffffffffffffffffff16141515611c545760006002600083815260200190815260200160002060006101000a81548173ffffffffffffffffffffffffffffffffffffffff021916908373ffffffffffffffffffffffffffffffffffffffff1602179055505b5050565b8173ffffffffffffffffffffffffffffffffffffffff16611c78826110f1565b73ffffffffffffffffffffffffffffffffffffffff16141515611c9a57600080fd5b611ced6001600360008573ffffffffffffffffffffffffffffffffffffffff1673ffffffffffffffffffffffffffffffffffffffff168152602001908152602001600020546121a490919063ffffffff16565b600360008473ffffffffffffffffffffffffffffffffffffffff1673ffffffffffffffffffffffffffffffffffffffff1681526020019081526020016000208190555060006001600083815260200190815260200160002060006101000a81548173ffffffffffffffffffffffffffffffffffffffff021916908373ffffffffffffffffffffffffffffffffffffffff1602179055505050565b600073ffffffffffffffffffffffffffffffffffffffff166001600083815260200190815260200160002060009054906101000a900473ffffffffffffffffffffffffffffffffffffffff1673ffffffffffffffffffffffffffffffffffffffff16141515611df557600080fd5b816001600083815260200190815260200160002060006101000a81548173ffffffffffffffffffffffffffffffffffffffff021916908373ffffffffffffffffffffffffffffffffffffffff160217905550611e9a6001600360008573ffffffffffffffffffffffffffffffffffffffff1673ffffffffffffffffffffffffffffffffffffffff16815260200190815260200160002054611ee190919063ffffffff16565b600360008473ffffffffffffffffffffffffffffffffffffffff1673ffffffffffffffffffffffffffffffffffffffff168152602001908152602001600020819055505050565b6000808284019050838110151515611ef857600080fd5b8091505092915050565b600080600080600080611f396002611f2b89602001518b60200151611ee190919063ffffffff16565b6121c590919063ffffffff16565b9250611f696002611f5b89604001518b60400151611ee190919063ffffffff16565b6121c590919063ffffffff16565b9150611f996002611f8b89606001518b60600151611ee190919063ffffffff16565b6121c590919063ffffffff16565b90508282829550955095505050509250925092565b600080611fd08573ffffffffffffffffffffffffffffffffffffffff166121ef565b1515611fdf57600191506120f5565b8473ffffffffffffffffffffffffffffffffffffffff1663150b7a02338887876040518563ffffffff167c010000000000000000000000000000000000000000000000000000000002815260040161203a9493929190612b35565b602060405180830381600087803b15801561205457600080fd5b505af1158015612068573d6000803e3d6000fd5b505050506040513d601f19601f8201168201806040525061208c9190810190612657565b905063150b7a027c0100000000000000000000000000000000000000000000000000000000027bffffffffffffffffffffffffffffffffffffffffffffffffffffffff1916817bffffffffffffffffffffffffffffffffffffffffffffffffffffffff19161491505b50949350505050565b600073ffffffffffffffffffffffffffffffffffffffff168273ffffffffffffffffffffffffffffffffffffffff161415151561213a57600080fd5b6121448282611d87565b808273ffffffffffffffffffffffffffffffffffffffff16600073ffffffffffffffffffffffffffffffffffffffff167fddf252ad1be2c89b69c2b068fc378daa952ba7f163c4a11628f55a4df523b3ef60405160405180910390a45050565b6000808383111515156121b657600080fd5b82840390508091505092915050565b6000806000831115156121d757600080fd5b82848115156121e257fe5b0490508091505092915050565b600080823b905060008111915050919050565b60a060405190810160405280600590602082028038833980820191505090505090565b60c0604051908101604052806060815260200160008152602001600081526020016000815260200160008152602001600081525090565b828054600181600116156101000203166002900490600052602060002090601f016020900481019282601f1061229d57803560ff19168380011785556122cb565b828001600101855582156122cb579182015b828111156122ca5782358255916020019190600101906122af565b5b5090506122d8919061235c565b5090565b828054600181600116156101000203166002900490600052602060002090601f016020900481019282601f1061231d57805160ff191683800117855561234b565b8280016001018555821561234b579182015b8281111561234a57825182559160200191906001019061232f565b5b509050612358919061235c565b5090565b61237e91905b8082111561237a576000816000905550600101612362565b5090565b90565b600061238d8235612e4e565b905092915050565b60006123a18235612e6e565b905092915050565b60006123b58235612e7a565b905092915050565b60006123c98251612e7a565b905092915050565b600082601f83011215156123e457600080fd5b81356123f76123f282612d45565b612d18565b9150808252602083016020830185838301111561241357600080fd5b61241e838284612eb0565b50505092915050565b60008083601f840112151561243b57600080fd5b8235905067ffffffffffffffff81111561245457600080fd5b60208301915083600182028301111561246c57600080fd5b9250929050565b600061247f8235612ea6565b905092915050565b60006020828403121561249957600080fd5b60006124a784828501612381565b91505092915050565b600080604083850312156124c357600080fd5b60006124d185828601612381565b92505060206124e285828601612381565b9150509250929050565b60008060006060848603121561250157600080fd5b600061250f86828701612381565b935050602061252086828701612381565b925050604061253186828701612473565b9150509250925092565b6000806000806080858703121561255157600080fd5b600061255f87828801612381565b945050602061257087828801612381565b935050604061258187828801612473565b925050606085013567ffffffffffffffff81111561259e57600080fd5b6125aa878288016123d1565b91505092959194509250565b600080604083850312156125c957600080fd5b60006125d785828601612381565b92505060206125e885828601612395565b9150509250929050565b6000806040838503121561260557600080fd5b600061261385828601612381565b925050602061262485828601612473565b9150509250929050565b60006020828403121561264057600080fd5b600061264e848285016123a9565b91505092915050565b60006020828403121561266957600080fd5b6000612677848285016123bd565b91505092915050565b60006020828403121561269257600080fd5b60006126a084828501612473565b91505092915050565b6000806000604084860312156126be57600080fd5b60006126cc86828701612473565b935050602084013567ffffffffffffffff8111156126e957600080fd5b6126f586828701612427565b92509250509250925092565b6000806040838503121561271457600080fd5b600061272285828601612473565b925050602061273385828601612473565b9150509250929050565b61274681612e18565b82525050565b600061275782612da2565b80845260208401935061276983612d71565b60005b8281101561279b5761277f868351612883565b61278882612de4565b915060a08601955060018101905061276c565b50849250505092915050565b60006127b282612dad565b808452602084019350836020820285016127cb85612d7e565b60005b848110156128045783830388526127e6838351612913565b92506127f182612df1565b91506020880197506001810190506127ce565b508196508694505050505092915050565b600061282082612db8565b8084526020840193508360208202850161283985612d8b565b60005b84811015612872578383038852612854838351612a82565b925061285f82612dfe565b915060208801975060018101905061283c565b508196508694505050505092915050565b61288c81612dc3565b61289582612d98565b60005b828110156128c7576128ab858351612b0b565b6128b482612e0b565b9150602085019450600181019050612898565b5050505050565b6128d781612e38565b82525050565b60006128e882612dce565b8084526128fc816020860160208601612ebf565b61290581612ef2565b602085010191505092915050565b600061291e82612dd9565b808452612932816020860160208601612ebf565b61293b81612ef2565b602085010191505092915050565b6000602982527f616464726573732068617320616c726561647920636c61696d6564206120667260208301527f65652062616c6c657200000000000000000000000000000000000000000000006040830152606082019050919050565b6000602082527f6e6f7420656e6f75676820746f6b656e7320696e207472616e73616374696f6e6020830152604082019050919050565b6000602082527f6e6f7420656e6f7567682065746865727320696e207472616e73616374696f6e6020830152604082019050919050565b6000601b82527f612062616c6c65722063616e277420666967687420697473656c6600000000006020830152604082019050919050565b6000601c82527f63616e277420666967687420796f7572206f776e2062616c6c657273000000006020830152604082019050919050565b600060c0830160008301518482036000860152612a9f8282612913565b9150506020830151612ab46020860182612b0b565b506040830151612ac76040860182612b0b565b506060830151612ada6060860182612b0b565b506080830151612aed6080860182612b0b565b5060a0830151612b0060a0860182612b0b565b508091505092915050565b612b1481612e44565b82525050565b6000602082019050612b2f600083018461273d565b92915050565b6000608082019050612b4a600083018761273d565b612b57602083018661273d565b612b646040830185612b0b565b8181036060830152612b7681846128dd565b905095945050505050565b60006040820190508181036000830152612b9b81856127a7565b90508181036020830152612baf818461274c565b90509392505050565b60006020820190508181036000830152612bd28184612815565b905092915050565b6000602082019050612bef60008301846128ce565b92915050565b600060c0820190508181036000830152612c0f8189612913565b9050612c1e6020830188612b0b565b612c2b6040830187612b0b565b612c386060830186612b0b565b612c456080830185612b0b565b612c5260a0830184612b0b565b979650505050505050565b60006020820190508181036000830152612c7681612949565b9050919050565b60006020820190508181036000830152612c96816129a6565b9050919050565b60006020820190508181036000830152612cb6816129dd565b9050919050565b60006020820190508181036000830152612cd681612a14565b9050919050565b60006020820190508181036000830152612cf681612a4b565b9050919050565b6000602082019050612d126000830184612b0b565b92915050565b6000604051905081810181811067ffffffffffffffff82111715612d3b57600080fd5b8060405250919050565b600067ffffffffffffffff821115612d5c57600080fd5b601f19601f8301169050602081019050919050565b6000602082019050919050565b6000602082019050919050565b6000602082019050919050565b6000819050919050565b600081519050919050565b600081519050919050565b600081519050919050565b600060059050919050565b600081519050919050565b600081519050919050565b6000602082019050919050565b6000602082019050919050565b6000602082019050919050565b6000602082019050919050565b600073ffffffffffffffffffffffffffffffffffffffff82169050919050565b60008115159050919050565b6000819050919050565b600073ffffffffffffffffffffffffffffffffffffffff82169050919050565b60008115159050919050565b60007fffffffff0000000000000000000000000000000000000000000000000000000082169050919050565b6000819050919050565b82818337600083830152505050565b60005b83811015612edd578082015181840152602081019050612ec2565b83811115612eec576000848401525b50505050565b6000601f19601f83011690509190505600a265627a7a72305820a519e6eb0394726fc280ac9c4adf07972efa24ecb3166bc3c1e2ddec8f9438446c6578706572696d656e74616cf50037",
  "source": "pragma solidity ^0.4.24;\npragma experimental ABIEncoderV2;\n\n//import 'openzeppelin-solidity/contracts/token/ERC721/ERC721.sol';\nimport './ERC721.sol';\n\ncontract CryptoBallers is ERC721 {\n\n    struct Baller {\n        string name;\n        uint level;\n        uint offenseSkill;\n        uint defenseSkill;\n        uint winCount;\n        uint lossCount;\n    }\n\n    event NewBaller();\n\n    address owner;\n    Baller[] public ballers;\n\n    // Mapping for if address has claimed their free baller\n    mapping(address => bool) public claimedFreeBaller;\n\n    // Fee for buying a baller\n    uint ballerFee = 0.10 ether;\n    uint ballerTokenMinimumFee = 1;\n\n    /**\n    * @dev Ensures ownership of the specified token ID\n    * @param _tokenId uint256 ID of the token to check\n    */\n    modifier onlyOwnerOf(uint256 _tokenId) {\n        // TODO add your code\n        msg.sender == ownerOf(_tokenId);\n        _;\n    }\n\n    /**\n    * @dev Ensures ownership of contract\n    */\n    modifier onlyOwner() {\n        // TODO add your code\n        msg.sender == owner;\n        _;\n    }\n\n    /**\n    * @dev Ensures baller has level above specified level\n    * @param _level uint level that the baller needs to be above\n    * @param _ballerId uint ID of the Baller to check\n    */\n    modifier aboveLevel(uint _level, uint _ballerId) {\n        // TODO add your code\n        ballers[_ballerId].level > _level;\n        _;\n    }\n\n    constructor() public {\n        owner = msg.sender;\n    }\n\n    /**\n    * @dev Allows user to claim first free baller, ensure no address can claim more than one\n    */\n    function claimFreeBaller() public {\n        // TODO add your code\n        require(!claimedFreeBaller[msg.sender], \"address has already claimed a free baller\");\n        \n        uint level = 1;\n        (uint offense, uint defense) = _random(1,5);\n        claimedFreeBaller[msg.sender] = true;\n        _createBaller(\"puppy\", level, offense, defense);\n        emit NewBaller();\n    }\n\n    /**\n    * @dev Allows user to buy baller with set attributes\n    */\n    function buyBaller() public payable {\n        // TODO add your code\n        require(msg.value >= ballerFee, \"not enough ethers in transaction\");\n        \n        uint level = 1;\n        (uint offense, uint defense) = _random(1,10);\n        _createBaller(\"puppy\", level, offense, defense);\n        emit NewBaller();\n    }\n\n    function buyBallerWithToken(address _from/*, uint _ballerTokenFee*/) public payable {\n        uint _ballerTokenFee = 2;\n        require(_ballerTokenFee >= ballerTokenMinimumFee, \"not enough tokens in transaction\");\n        uint fee = _ballerTokenFee;\n        uint floor = fee;\n        uint ceil = 9+fee;\n        uint level = 1;\n        (uint offense, uint defense) = _random(floor, ceil);\n        uint256 tokenId = ballers.length;\n        ballers.push(Baller(\"puppy\", level, offense, defense, 0, 0));\n        _mint(_from, tokenId);\n        emit NewBaller();\n    }\n\n    function getAllCryptoBallers(address _from) public view returns (string[], uint256[5][]) {\n\n        string[] memory name = new string[](balanceOf(_from));\n        uint256[5][] memory specs = new uint256[5][](balanceOf(_from));\n        uint j = 0;\n\n        for (uint i = 0; i < ballers.length; i++) {\n\n            if (_from == ownerOf(i)) {\n                Baller storage tmp_baller = ballers[i];\n                \n                name[j] = tmp_baller.name;\n                specs[j] = [tmp_baller.level, tmp_baller.offenseSkill, tmp_baller.defenseSkill, tmp_baller.winCount, tmp_baller.lossCount];\n                j = j.add(1);\n            }\n        }\n        return (name, specs);\n    }\n\n    function getStructBaller(address _from) public view returns (Baller[] a) {\n\n        Baller[] memory b = new Baller[](balanceOf(_from));\n        uint j = 0;\n\n        for (uint i = 0; i < ballers.length; i++) {\n\n            if (_from == ownerOf(i)) {\n                Baller storage tmp_baller = ballers[i];\n                b[j].name = tmp_baller.name;\n                b[j].level = tmp_baller.level;\n                b[j].offenseSkill = tmp_baller.offenseSkill;\n                b[j].defenseSkill = tmp_baller.defenseSkill;\n                b[j].winCount = tmp_baller.winCount;\n                b[j].lossCount = tmp_baller.lossCount;\n                j = j.add(1);\n            }\n        }\n\n        return b;\n    }\n\n    function getAmountCryptoBallers() public view returns (uint) {\n        return ballers.length;\n    }\n\n    /**\n    * @dev Play a game with your baller and an opponent baller\n    * If your baller has more offensive skill than your opponent's defensive skill\n    * you win, your level goes up, the opponent loses, and vice versa.\n    * If you win and your baller reaches level 5, you are awarded a new baller with a mix of traits\n    * from your baller and your opponent's baller.\n    * @param _ballerId uint ID of the Baller initiating the game\n    * @param _opponentId uint ID that the baller needs to be above\n    */\n    function playBall(uint _ballerId, uint _opponentId) onlyOwnerOf(_ballerId) public {\n        // TODO add your code\n        require(_ballerId != _opponentId, \"a baller can't fight itself\");\n        require(ownerOf(_ballerId) != ownerOf(_opponentId), \"can't fight your own ballers\");\n\n        Baller storage player = ballers[_ballerId];\n        Baller storage opponent = ballers[_opponentId];\n        \n        // calculate random first strike advantage for player\n        (uint firstStrikeOffense, uint firstStrikeDefense) = _random(0,3);\n\n        if ((player.offenseSkill + firstStrikeOffense) > opponent.defenseSkill) {\n            player.level = player.level.add(1);\n            player.winCount = player.winCount.add(1);\n            opponent.lossCount = opponent.lossCount.add(1);\n        } else if ((player.defenseSkill + firstStrikeDefense) < opponent.offenseSkill) {\n            opponent.level = opponent.level.add(1);\n            opponent.winCount = opponent.winCount.add(1);\n            player.lossCount = player.lossCount.add(1);\n        }\n\n        if (ballers[_ballerId].level == 5) {\n            (uint level, uint attack, uint defense) = _breedBallers(ballers[_ballerId], ballers[_opponentId]);\n            _createBaller(\"puppy_breed\", level, attack, defense);\n        }\n    }\n\n    /**\n    * @dev Changes the name of your baller if they are above level two\n    * @param _ballerId uint ID of the Baller who's name you want to change\n    * @param _newName string new name you want to give to your Baller\n    */\n    function changeName(uint _ballerId, string _newName) external aboveLevel(2, _ballerId) onlyOwnerOf(_ballerId) {\n        // TODO add your code\n        ballers[_ballerId].name = _newName;\n    }\n\n    /**\n   * @dev Creates a baller based on the params given, adds them to the Baller array and mints a token\n   * @param _name string name of the Baller\n   * @param _level uint level of the Baller\n   * @param _offenseSkill offensive skill of the Baller\n   * @param _defenseSkill defensive skill of the Baller\n   */\n    function _createBaller(string _name, uint _level, uint _offenseSkill, uint _defenseSkill) internal {\n        // TODO add your code\n        uint256 tokenId = ballers.length;\n        ballers.push(Baller(_name, _level, _offenseSkill, _defenseSkill, 0, 0));\n        _mint(msg.sender, tokenId);\n    }\n\n    /**\n    * @dev Helper function for a new baller which averages the attributes of the level, attack, defense of the ballers\n    * @param _baller1 Baller first baller to average\n    * @param _baller2 Baller second baller to average\n    * @return tuple of level, attack and defense\n    */\n    function _breedBallers(Baller _baller1, Baller _baller2) internal pure returns (uint, uint, uint) {\n        uint level = _baller1.level.add(_baller2.level).div(2);\n        uint attack = _baller1.offenseSkill.add(_baller2.offenseSkill).div(2);\n        uint defense = _baller1.defenseSkill.add(_baller2.defenseSkill).div(2);\n        return (level, attack, defense);\n\n    }\n\n    function _random(uint floor, uint ceiling) private view returns (uint, uint) {\n        //TODO: build in a range for random\n        uint offense = uint(blockhash(block.number-1))%ceiling + floor;\n        uint defense = uint(blockhash(block.number-2))%ceiling + floor;\n        return (offense, defense);\n    }\n}",
  "sourcePath": "/home/sdirix/Documents/eap/eth-accelerator-assignments/week3/CryptoBallers/contracts/CryptoBallers.sol",
  "compiler": {
    "name": "solc",
    "version": "0.4.24+commit.e67f0147.Emscripten.clang"
  },
  "schemaVersion": "2.0.1",
  "updatedAt": "2018-12-17T21:06:43.835Z"
}