{
  "contractName": "ERC20",
  "abi": [
    {
      "anonymous": false,
      "inputs": [
        {
          "indexed": true,
          "name": "from",
          "type": "address"
        },
        {
          "indexed": true,
          "name": "to",
          "type": "address"
        },
        {
          "indexed": false,
          "name": "value",
          "type": "uint256"
        }
      ],
      "name": "Transfer",
      "type": "event"
    },
    {
      "anonymous": false,
      "inputs": [
        {
          "indexed": true,
          "name": "owner",
          "type": "address"
        },
        {
          "indexed": true,
          "name": "spender",
          "type": "address"
        },
        {
          "indexed": false,
          "name": "value",
          "type": "uint256"
        }
      ],
      "name": "Approval",
      "type": "event"
    },
    {
      "constant": true,
      "inputs": [],
      "name": "totalSupply",
      "outputs": [
        {
          "name": "",
          "type": "uint256"
        }
      ],
      "payable": false,
      "stateMutability": "view",
      "type": "function"
    },
    {
      "constant": true,
      "inputs": [
        {
          "name": "owner",
          "type": "address"
        }
      ],
      "name": "balanceOf",
      "outputs": [
        {
          "name": "",
          "type": "uint256"
        }
      ],
      "payable": false,
      "stateMutability": "view",
      "type": "function"
    },
    {
      "constant": true,
      "inputs": [
        {
          "name": "owner",
          "type": "address"
        },
        {
          "name": "spender",
          "type": "address"
        }
      ],
      "name": "allowance",
      "outputs": [
        {
          "name": "",
          "type": "uint256"
        }
      ],
      "payable": false,
      "stateMutability": "view",
      "type": "function"
    },
    {
      "constant": false,
      "inputs": [
        {
          "name": "to",
          "type": "address"
        },
        {
          "name": "value",
          "type": "uint256"
        }
      ],
      "name": "transfer",
      "outputs": [
        {
          "name": "",
          "type": "bool"
        }
      ],
      "payable": false,
      "stateMutability": "nonpayable",
      "type": "function"
    },
    {
      "constant": false,
      "inputs": [
        {
          "name": "spender",
          "type": "address"
        },
        {
          "name": "value",
          "type": "uint256"
        }
      ],
      "name": "approve",
      "outputs": [
        {
          "name": "",
          "type": "bool"
        }
      ],
      "payable": false,
      "stateMutability": "nonpayable",
      "type": "function"
    },
    {
      "constant": false,
      "inputs": [
        {
          "name": "from",
          "type": "address"
        },
        {
          "name": "to",
          "type": "address"
        },
        {
          "name": "value",
          "type": "uint256"
        }
      ],
      "name": "transferFrom",
      "outputs": [
        {
          "name": "",
          "type": "bool"
        }
      ],
      "payable": false,
      "stateMutability": "nonpayable",
      "type": "function"
    },
    {
      "constant": false,
      "inputs": [
        {
          "name": "to",
          "type": "address"
        },
        {
          "name": "_value",
          "type": "uint256"
        }
      ],
      "name": "sendTokenToBaller",
      "outputs": [],
      "payable": true,
      "stateMutability": "payable",
      "type": "function"
    }
  ],
  "bytecode": "0x608060405234801561001057600080fd5b50610d9e806100206000396000f300608060405260043610610083576000357c0100000000000000000000000000000000000000000000000000000000900463ffffffff168063095ea7b31461008857806318160ddd146100ed57806323b872dd1461011857806370a082311461019d5780637f0f5346146101f4578063a9059cbb14610234578063dd62ed3e14610299575b600080fd5b34801561009457600080fd5b506100d3600480360381019080803573ffffffffffffffffffffffffffffffffffffffff16906020019092919080359060200190929190505050610310565b604051808215151515815260200191505060405180910390f35b3480156100f957600080fd5b5061010261039d565b6040518082815260200191505060405180910390f35b34801561012457600080fd5b50610183600480360381019080803573ffffffffffffffffffffffffffffffffffffffff169060200190929190803573ffffffffffffffffffffffffffffffffffffffff169060200190929190803590602001909291905050506103a7565b604051808215151515815260200191505060405180910390f35b3480156101a957600080fd5b506101de600480360381019080803573ffffffffffffffffffffffffffffffffffffffff16906020019092919050505061079e565b6040518082815260200191505060405180910390f35b610232600480360381019080803573ffffffffffffffffffffffffffffffffffffffff169060200190929190803590602001909291905050506107e6565b005b34801561024057600080fd5b5061027f600480360381019080803573ffffffffffffffffffffffffffffffffffffffff16906020019092919080359060200190929190505050610ab6565b604051808215151515815260200191505060405180910390f35b3480156102a557600080fd5b506102fa600480360381019080803573ffffffffffffffffffffffffffffffffffffffff169060200190929190803573ffffffffffffffffffffffffffffffffffffffff169060200190929190505050610ca9565b6040518082815260200191505060405180910390f35b600081600160003373ffffffffffffffffffffffffffffffffffffffff1673ffffffffffffffffffffffffffffffffffffffff16815260200190815260200160002060008573ffffffffffffffffffffffffffffffffffffffff1673ffffffffffffffffffffffffffffffffffffffff168152602001908152602001600020819055506001905092915050565b6000600254905090565b600081600160008673ffffffffffffffffffffffffffffffffffffffff1673ffffffffffffffffffffffffffffffffffffffff16815260200190815260200160002060003373ffffffffffffffffffffffffffffffffffffffff1673ffffffffffffffffffffffffffffffffffffffff16815260200190815260200160002054101515156104c3576040517f08c379a00000000000000000000000000000000000000000000000000000000081526004018080602001828103825260268152602001807f5370656e646572206973206e6f7420616c6c6f77656420746f207370656e642081526020017f746f6b656e73000000000000000000000000000000000000000000000000000081525060400191505060405180910390fd5b816104cd8561079e565b10151515610543576040517f08c379a00000000000000000000000000000000000000000000000000000000081526004018080602001828103825260208152602001807f4f776e657220646f65736e2774206861766520656e6f75676820746f6b656e7381525060200191505060405180910390fd5b610594826000808773ffffffffffffffffffffffffffffffffffffffff1673ffffffffffffffffffffffffffffffffffffffff16815260200190815260200160002054610d3090919063ffffffff16565b6000808673ffffffffffffffffffffffffffffffffffffffff1673ffffffffffffffffffffffffffffffffffffffff1681526020019081526020016000208190555061066582600160008773ffffffffffffffffffffffffffffffffffffffff1673ffffffffffffffffffffffffffffffffffffffff16815260200190815260200160002060003373ffffffffffffffffffffffffffffffffffffffff1673ffffffffffffffffffffffffffffffffffffffff16815260200190815260200160002054610d3090919063ffffffff16565b600160008673ffffffffffffffffffffffffffffffffffffffff1673ffffffffffffffffffffffffffffffffffffffff16815260200190815260200160002060003373ffffffffffffffffffffffffffffffffffffffff1673ffffffffffffffffffffffffffffffffffffffff16815260200190815260200160002081905550610736826000808673ffffffffffffffffffffffffffffffffffffffff1673ffffffffffffffffffffffffffffffffffffffff16815260200190815260200160002054610d5190919063ffffffff16565b6000808573ffffffffffffffffffffffffffffffffffffffff1673ffffffffffffffffffffffffffffffffffffffff1681526020019081526020016000208190555061078d82600254610d3090919063ffffffff16565b600281905550600190509392505050565b60008060008373ffffffffffffffffffffffffffffffffffffffff1673ffffffffffffffffffffffffffffffffffffffff168152602001908152602001600020549050919050565b806107f03361079e565b1015151561088c576040517f08c379a00000000000000000000000000000000000000000000000000000000081526004018080602001828103825260228152602001807f53656e64657220646f65736e2774206861766520656e6f7567682062616c616e81526020017f636500000000000000000000000000000000000000000000000000000000000081525060400191505060405180910390fd5b6108dd816000803373ffffffffffffffffffffffffffffffffffffffff1673ffffffffffffffffffffffffffffffffffffffff16815260200190815260200160002054610d3090919063ffffffff16565b6000803373ffffffffffffffffffffffffffffffffffffffff1673ffffffffffffffffffffffffffffffffffffffff16815260200190815260200160002081905550610970816000808573ffffffffffffffffffffffffffffffffffffffff1673ffffffffffffffffffffffffffffffffffffffff16815260200190815260200160002054610d5190919063ffffffff16565b6000808473ffffffffffffffffffffffffffffffffffffffff1673ffffffffffffffffffffffffffffffffffffffff168152602001908152602001600020819055506109c781600254610d3090919063ffffffff16565b6002819055508173ffffffffffffffffffffffffffffffffffffffff1660405180807f62757942616c6c657257697468546f6b656e2861646472657373290000000000815250601b01905060405180910390207c01000000000000000000000000000000000000000000000000000000009004336040518263ffffffff167c0100000000000000000000000000000000000000000000000000000000028152600401808273ffffffffffffffffffffffffffffffffffffffff1673ffffffffffffffffffffffffffffffffffffffff1681526020019150506000604051808303816000875af192505050505050565b600081610ac23361079e565b10151515610b5e576040517f08c379a00000000000000000000000000000000000000000000000000000000081526004018080602001828103825260228152602001807f53656e64657220646f65736e2774206861766520656e6f7567682062616c616e81526020017f636500000000000000000000000000000000000000000000000000000000000081525060400191505060405180910390fd5b610baf826000803373ffffffffffffffffffffffffffffffffffffffff1673ffffffffffffffffffffffffffffffffffffffff16815260200190815260200160002054610d3090919063ffffffff16565b6000803373ffffffffffffffffffffffffffffffffffffffff1673ffffffffffffffffffffffffffffffffffffffff16815260200190815260200160002081905550610c42826000808673ffffffffffffffffffffffffffffffffffffffff1673ffffffffffffffffffffffffffffffffffffffff16815260200190815260200160002054610d5190919063ffffffff16565b6000808573ffffffffffffffffffffffffffffffffffffffff1673ffffffffffffffffffffffffffffffffffffffff16815260200190815260200160002081905550610c9982600254610d3090919063ffffffff16565b6002819055506001905092915050565b6000600160008473ffffffffffffffffffffffffffffffffffffffff1673ffffffffffffffffffffffffffffffffffffffff16815260200190815260200160002060008373ffffffffffffffffffffffffffffffffffffffff1673ffffffffffffffffffffffffffffffffffffffff16815260200190815260200160002054905092915050565b600080838311151515610d4257600080fd5b82840390508091505092915050565b6000808284019050838110151515610d6857600080fd5b80915050929150505600a165627a7a7230582038bbc8729e95c92c7ffa9dc820dd8d6784267671d665ebf3ab12f2aa86286c800029",
  "source": "pragma solidity ^0.4.24;\n\nimport \"./IERC20.sol\";\nimport \"./SafeMath.sol\";\nimport \"./CryptoBallers.sol\";\n\n/**\n * @title Standard ERC20 token\n * @dev Implementation of the basic standard token.\n */\ncontract ERC20 is IERC20 {\n    using SafeMath for uint256;\n\n    mapping (address => uint256) internal _balances;\n    mapping (address => mapping (address => uint256)) internal _allowed;\n    uint256 internal _totalSupply;\n  // -----------------------------------------\n  // Public Functions (DO NOT CHANGE!!)\n  // -----------------------------------------\n\n  /**\n  * @dev Total number of tokens in existence\n  */\n    function totalSupply() public view returns (uint256) {\n        // TODO: Your Code Here\n        return _totalSupply;\n    }\n\n  /**\n  * @dev Gets the balance of the specified address.\n  * @param owner The address to query the balance of.\n  * @return An uint256 representing the amount owned by the passed address.\n  */\n    function balanceOf(address owner) public view returns (uint256) {\n        // TODO: Your Code Here\n        return _balances[owner];\n    }\n\n  /**\n   * @dev Function to check the amount of tokens that an owner allowed to a spender.\n   * @param owner address The address which owns the funds.\n   * @param spender address The address which will spend the funds.\n   * @return A uint256 specifying the amount of tokens still available for the spender.\n   */\n    function allowance(address owner, address spender) public view returns(uint256) {\n        // TODO: Your Code Here\n        return _allowed[owner][spender];\n    }\n\n  /**\n  * @dev Transfer token for a specified address\n  * @param to The address to transfer to.\n  * @param value The amount to be transferred.\n  * @return Should always return true if all conditions are met. Otherwise throw exception.\n  */\n    function transfer(address to, uint256 value) public returns (bool) {\n        // TODO: Your Code Here\n        require(balanceOf(msg.sender) >= value, \"Sender doesn't have enough balance\");\n        \n        _balances[msg.sender] = _balances[msg.sender].sub(value);\n        _balances[to] = _balances[to].add(value);\n        _totalSupply = _totalSupply.sub(value);\n        return true;\n    }\n\n  /**\n   * @dev Approve the passed address to spend the specified amount of tokens on behalf of msg.sender.\n   * Note that the owner (msg.sender) can approve someone to spend tokens that they do not yet have.\n   * @param spender The address which will spend the funds.\n   * @param value The amount of tokens to be spent.\n   * @return Should always return true if success. Otherwise throw exception.\n   */\n    function approve(address spender, uint256 value) public returns (bool) {\n        // TODO: Your Code Here\n        _allowed[msg.sender][spender] = value;\n        \n        return true;\n    }\n\n  /**\n   * @dev Transfer tokens from one address to another\n   * @param from address The address which you want to send tokens from\n   * @param to address The address which you want to transfer to\n   * @param value uint256 the amount of tokens to be transferred\n   */\n    function transferFrom(address from, address to, uint256 value) public returns (bool) {\n        // TODO: Your Code Here\n        require(_allowed[from][msg.sender] >= value, \"Spender is not allowed to spend tokens\");\n        require(balanceOf(from) >= value, \"Owner doesn't have enough tokens\");\n        \n        _balances[from] = _balances[from].sub(value);\n        _allowed[from][msg.sender] = _allowed[from][msg.sender].sub(value);\n        _balances[to] = _balances[to].add(value);\n        _totalSupply = _totalSupply.sub(value);\n        \n        return true;\n    }\n\n    function sendTokenToBaller(address to, uint256 _value) public payable {\n        // TODO: Your Code Here\n        require(balanceOf(msg.sender) >= _value, \"Sender doesn't have enough balance\");\n\n        _balances[msg.sender] = _balances[msg.sender].sub(_value);\n        _balances[to] = _balances[to].add(_value);\n        _totalSupply = _totalSupply.sub(_value);\n      \n        to.call(bytes4(sha3(\"buyBallerWithToken(address)\")), msg.sender);\n        //buyBallerWithToken(msg.sender, _value);\n    }\n  // -----------------------------------------\n  // Internal functions (you can write any other internal helper functions here)\n  // -----------------------------------------\n\n}\n",
  "sourcePath": "/home/sdirix/Documents/eap/eth-accelerator-assignments/week3/CryptoBallers/contracts/ERC20.sol",
  "compiler": {
    "name": "solc",
    "version": "0.4.24+commit.e67f0147.Emscripten.clang"
  },
  "schemaVersion": "2.0.1",
  "updatedAt": "2018-12-17T21:06:43.167Z"
}