{
  "contractName": "RewardPoints",
  "abi": [
    {
      "inputs": [],
      "payable": false,
      "stateMutability": "nonpayable",
      "type": "constructor"
    },
    {
      "anonymous": false,
      "inputs": [
        {
          "indexed": true,
          "name": "admin",
          "type": "address"
        }
      ],
      "name": "AddedAdmin",
      "type": "event"
    },
    {
      "anonymous": false,
      "inputs": [
        {
          "indexed": true,
          "name": "admin",
          "type": "address"
        }
      ],
      "name": "RemovedAdmin",
      "type": "event"
    },
    {
      "anonymous": false,
      "inputs": [
        {
          "indexed": true,
          "name": "merchant",
          "type": "address"
        },
        {
          "indexed": true,
          "name": "id",
          "type": "uint256"
        }
      ],
      "name": "AddedMerchant",
      "type": "event"
    },
    {
      "anonymous": false,
      "inputs": [
        {
          "indexed": true,
          "name": "merchantId",
          "type": "uint256"
        }
      ],
      "name": "BannedMerchant",
      "type": "event"
    },
    {
      "anonymous": false,
      "inputs": [
        {
          "indexed": true,
          "name": "merchantId",
          "type": "uint256"
        }
      ],
      "name": "ApprovedMerchant",
      "type": "event"
    },
    {
      "anonymous": false,
      "inputs": [
        {
          "indexed": true,
          "name": "merchantId",
          "type": "uint256"
        },
        {
          "indexed": false,
          "name": "oldOwner",
          "type": "address"
        },
        {
          "indexed": false,
          "name": "newOwner",
          "type": "address"
        }
      ],
      "name": "TransferredMerchantOwnership",
      "type": "event"
    },
    {
      "anonymous": false,
      "inputs": [
        {
          "indexed": true,
          "name": "merchantId",
          "type": "uint256"
        },
        {
          "indexed": true,
          "name": "operator",
          "type": "address"
        }
      ],
      "name": "AddedOperator",
      "type": "event"
    },
    {
      "anonymous": false,
      "inputs": [
        {
          "indexed": true,
          "name": "merchantId",
          "type": "uint256"
        },
        {
          "indexed": true,
          "name": "operator",
          "type": "address"
        }
      ],
      "name": "RemovedOperator",
      "type": "event"
    },
    {
      "anonymous": false,
      "inputs": [
        {
          "indexed": true,
          "name": "user",
          "type": "address"
        },
        {
          "indexed": true,
          "name": "id",
          "type": "uint256"
        }
      ],
      "name": "AddedUser",
      "type": "event"
    },
    {
      "anonymous": false,
      "inputs": [
        {
          "indexed": true,
          "name": "user",
          "type": "address"
        },
        {
          "indexed": true,
          "name": "id",
          "type": "uint256"
        }
      ],
      "name": "BannedUser",
      "type": "event"
    },
    {
      "anonymous": false,
      "inputs": [
        {
          "indexed": true,
          "name": "user",
          "type": "address"
        },
        {
          "indexed": true,
          "name": "id",
          "type": "uint256"
        }
      ],
      "name": "ApprovedUser",
      "type": "event"
    },
    {
      "anonymous": false,
      "inputs": [
        {
          "indexed": true,
          "name": "user",
          "type": "address"
        },
        {
          "indexed": true,
          "name": "merchantId",
          "type": "uint256"
        },
        {
          "indexed": false,
          "name": "points",
          "type": "uint256"
        }
      ],
      "name": "RewardedUser",
      "type": "event"
    },
    {
      "anonymous": false,
      "inputs": [
        {
          "indexed": true,
          "name": "user",
          "type": "address"
        },
        {
          "indexed": true,
          "name": "merchantId",
          "type": "uint256"
        },
        {
          "indexed": false,
          "name": "points",
          "type": "uint256"
        }
      ],
      "name": "RedeemedPoints",
      "type": "event"
    },
    {
      "constant": false,
      "inputs": [
        {
          "name": "_admin",
          "type": "address"
        }
      ],
      "name": "addAdmin",
      "outputs": [],
      "payable": false,
      "stateMutability": "nonpayable",
      "type": "function"
    },
    {
      "constant": false,
      "inputs": [
        {
          "name": "_admin",
          "type": "address"
        }
      ],
      "name": "removeAdmin",
      "outputs": [],
      "payable": false,
      "stateMutability": "nonpayable",
      "type": "function"
    },
    {
      "constant": false,
      "inputs": [
        {
          "name": "_merchant",
          "type": "address"
        }
      ],
      "name": "addMerchant",
      "outputs": [],
      "payable": false,
      "stateMutability": "nonpayable",
      "type": "function"
    },
    {
      "constant": false,
      "inputs": [
        {
          "name": "_id",
          "type": "uint256"
        }
      ],
      "name": "banMerchant",
      "outputs": [],
      "payable": false,
      "stateMutability": "nonpayable",
      "type": "function"
    },
    {
      "constant": false,
      "inputs": [
        {
          "name": "_id",
          "type": "uint256"
        }
      ],
      "name": "approveMerchant",
      "outputs": [],
      "payable": false,
      "stateMutability": "nonpayable",
      "type": "function"
    },
    {
      "constant": false,
      "inputs": [
        {
          "name": "_user",
          "type": "address"
        }
      ],
      "name": "addUser",
      "outputs": [],
      "payable": false,
      "stateMutability": "nonpayable",
      "type": "function"
    },
    {
      "constant": false,
      "inputs": [
        {
          "name": "_user",
          "type": "address"
        }
      ],
      "name": "banUser",
      "outputs": [],
      "payable": false,
      "stateMutability": "nonpayable",
      "type": "function"
    },
    {
      "constant": false,
      "inputs": [
        {
          "name": "_user",
          "type": "address"
        }
      ],
      "name": "approveUser",
      "outputs": [],
      "payable": false,
      "stateMutability": "nonpayable",
      "type": "function"
    },
    {
      "constant": false,
      "inputs": [
        {
          "name": "_operator",
          "type": "address"
        }
      ],
      "name": "addOperator",
      "outputs": [],
      "payable": false,
      "stateMutability": "nonpayable",
      "type": "function"
    },
    {
      "constant": false,
      "inputs": [
        {
          "name": "_operator",
          "type": "address"
        }
      ],
      "name": "removeOperator",
      "outputs": [],
      "payable": false,
      "stateMutability": "nonpayable",
      "type": "function"
    },
    {
      "constant": false,
      "inputs": [
        {
          "name": "_newAddr",
          "type": "address"
        }
      ],
      "name": "transferMerchantOwnership",
      "outputs": [],
      "payable": false,
      "stateMutability": "nonpayable",
      "type": "function"
    },
    {
      "constant": false,
      "inputs": [
        {
          "name": "_user",
          "type": "address"
        },
        {
          "name": "_points",
          "type": "uint256"
        }
      ],
      "name": "rewardUser",
      "outputs": [],
      "payable": false,
      "stateMutability": "nonpayable",
      "type": "function"
    },
    {
      "constant": false,
      "inputs": [
        {
          "name": "_mId",
          "type": "uint256"
        },
        {
          "name": "_points",
          "type": "uint256"
        }
      ],
      "name": "redeemPoints",
      "outputs": [],
      "payable": false,
      "stateMutability": "nonpayable",
      "type": "function"
    },
    {
      "constant": true,
      "inputs": [
        {
          "name": "_id",
          "type": "uint256"
        }
      ],
      "name": "getMerchantById",
      "outputs": [
        {
          "name": "",
          "type": "uint256"
        },
        {
          "name": "",
          "type": "address"
        },
        {
          "name": "",
          "type": "bool"
        }
      ],
      "payable": false,
      "stateMutability": "view",
      "type": "function"
    },
    {
      "constant": true,
      "inputs": [
        {
          "name": "_addr",
          "type": "address"
        }
      ],
      "name": "getMerchantByAddr",
      "outputs": [
        {
          "name": "",
          "type": "uint256"
        },
        {
          "name": "",
          "type": "address"
        },
        {
          "name": "",
          "type": "bool"
        }
      ],
      "payable": false,
      "stateMutability": "view",
      "type": "function"
    },
    {
      "constant": true,
      "inputs": [
        {
          "name": "_operator",
          "type": "address"
        },
        {
          "name": "_mId",
          "type": "uint256"
        }
      ],
      "name": "isMerchantOperator",
      "outputs": [
        {
          "name": "",
          "type": "bool"
        }
      ],
      "payable": false,
      "stateMutability": "view",
      "type": "function"
    },
    {
      "constant": true,
      "inputs": [
        {
          "name": "_id",
          "type": "uint256"
        }
      ],
      "name": "getUserById",
      "outputs": [
        {
          "name": "",
          "type": "uint256"
        },
        {
          "name": "",
          "type": "address"
        },
        {
          "name": "",
          "type": "bool"
        },
        {
          "name": "",
          "type": "uint256"
        },
        {
          "name": "",
          "type": "uint256"
        }
      ],
      "payable": false,
      "stateMutability": "view",
      "type": "function"
    },
    {
      "constant": true,
      "inputs": [
        {
          "name": "_addr",
          "type": "address"
        }
      ],
      "name": "getUserByAddr",
      "outputs": [
        {
          "name": "",
          "type": "uint256"
        },
        {
          "name": "",
          "type": "address"
        },
        {
          "name": "",
          "type": "bool"
        },
        {
          "name": "",
          "type": "uint256"
        },
        {
          "name": "",
          "type": "uint256"
        }
      ],
      "payable": false,
      "stateMutability": "view",
      "type": "function"
    },
    {
      "constant": true,
      "inputs": [
        {
          "name": "_user",
          "type": "address"
        },
        {
          "name": "_mId",
          "type": "uint256"
        }
      ],
      "name": "getUserEarnedPointsAtMerchant",
      "outputs": [
        {
          "name": "",
          "type": "uint256"
        }
      ],
      "payable": false,
      "stateMutability": "view",
      "type": "function"
    },
    {
      "constant": true,
      "inputs": [
        {
          "name": "_user",
          "type": "address"
        },
        {
          "name": "_mId",
          "type": "uint256"
        }
      ],
      "name": "getUserRedeemedPointsAtMerchant",
      "outputs": [
        {
          "name": "",
          "type": "uint256"
        }
      ],
      "payable": false,
      "stateMutability": "view",
      "type": "function"
    }
  ],
  "bytecode": "0x608060405234801561001057600080fd5b50600260606040519081016040528060008152602001600073ffffffffffffffffffffffffffffffffffffffff16815260200160001515815250908060018154018082558091505090600182039060005260206000209060030201600090919290919091506000820151816000015560208201518160010160006101000a81548173ffffffffffffffffffffffffffffffffffffffff021916908373ffffffffffffffffffffffffffffffffffffffff16021790555060408201518160010160146101000a81548160ff021916908315150217905550505050600460a06040519081016040528060008152602001600073ffffffffffffffffffffffffffffffffffffffff168152602001600015158152602001600081526020016000815250908060018154018082558091505090600182039060005260206000209060060201600090919290919091506000820151816000015560208201518160010160006101000a81548173ffffffffffffffffffffffffffffffffffffffff021916908373ffffffffffffffffffffffffffffffffffffffff16021790555060408201518160010160146101000a81548160ff0219169083151502179055506060820151816002015560808201518160030155505050336000806101000a81548173ffffffffffffffffffffffffffffffffffffffff021916908373ffffffffffffffffffffffffffffffffffffffff160217905550612d28806102326000396000f300608060405260043610610112576000357c0100000000000000000000000000000000000000000000000000000000900463ffffffff16806310d86b1f146101175780631785f53c1461015a5780631d210cd21461019d5780632aa39ebf1461021c5780632d36c611146102b1578063421b2d8b146102f45780636aea3baf146103375780636ed6da9e1461039c57806370480275146104295780639870d7fe1461046c578063a4069937146104af578063ac8a584a14610510578063af74052d14610553578063bf76c0ef146105b4578063c2e70431146105f7578063d624fdb61461062e578063e39e0e4614610671578063e4e103dc1461069e578063ed556a17146106eb578063f16e4e4614610718575b600080fd5b34801561012357600080fd5b50610158600480360381019080803573ffffffffffffffffffffffffffffffffffffffff1690602001909291905050506107bb565b005b34801561016657600080fd5b5061019b600480360381019080803573ffffffffffffffffffffffffffffffffffffffff1690602001909291905050506109d1565b005b3480156101a957600080fd5b506101c860048036038101908080359060200190929190505050610b59565b604051808481526020018373ffffffffffffffffffffffffffffffffffffffff1673ffffffffffffffffffffffffffffffffffffffff16815260200182151515158152602001935050505060405180910390f35b34801561022857600080fd5b5061025d600480360381019080803573ffffffffffffffffffffffffffffffffffffffff169060200190929190505050610c45565b604051808481526020018373ffffffffffffffffffffffffffffffffffffffff1673ffffffffffffffffffffffffffffffffffffffff16815260200182151515158152602001935050505060405180910390f35b3480156102bd57600080fd5b506102f2600480360381019080803573ffffffffffffffffffffffffffffffffffffffff169060200190929190505050610ca4565b005b34801561030057600080fd5b50610335600480360381019080803573ffffffffffffffffffffffffffffffffffffffff169060200190929190505050610ee7565b005b34801561034357600080fd5b50610382600480360381019080803573ffffffffffffffffffffffffffffffffffffffff169060200190929190803590602001909291905050506111bf565b604051808215151515815260200191505060405180910390f35b3480156103a857600080fd5b506103c7600480360381019080803590602001909291905050506112b1565b604051808681526020018573ffffffffffffffffffffffffffffffffffffffff1673ffffffffffffffffffffffffffffffffffffffff168152602001841515151581526020018381526020018281526020019550505050505060405180910390f35b34801561043557600080fd5b5061046a600480360381019080803573ffffffffffffffffffffffffffffffffffffffff1690602001909291905050506113b0565b005b34801561047857600080fd5b506104ad600480360381019080803573ffffffffffffffffffffffffffffffffffffffff169060200190929190505050611537565b005b3480156104bb57600080fd5b506104fa600480360381019080803573ffffffffffffffffffffffffffffffffffffffff169060200190929190803590602001909291905050506116fa565b6040518082815260200191505060405180910390f35b34801561051c57600080fd5b50610551600480360381019080803573ffffffffffffffffffffffffffffffffffffffff169060200190929190505050611874565b005b34801561055f57600080fd5b5061059e600480360381019080803573ffffffffffffffffffffffffffffffffffffffff16906020019092919080359060200190929190505050611a37565b6040518082815260200191505060405180910390f35b3480156105c057600080fd5b506105f5600480360381019080803573ffffffffffffffffffffffffffffffffffffffff169060200190929190505050611bb1565b005b34801561060357600080fd5b5061062c6004803603810190808035906020019092919080359060200190929190505050611ed9565b005b34801561063a57600080fd5b5061066f600480360381019080803573ffffffffffffffffffffffffffffffffffffffff1690602001909291905050506121f8565b005b34801561067d57600080fd5b5061069c6004803603810190808035906020019092919050505061240e565b005b3480156106aa57600080fd5b506106e9600480360381019080803573ffffffffffffffffffffffffffffffffffffffff1690602001909291908035906020019092919050505061258f565b005b3480156106f757600080fd5b50610716600480360381019080803590602001909291905050506128b6565b005b34801561072457600080fd5b50610759600480360381019080803573ffffffffffffffffffffffffffffffffffffffff169060200190929190505050612a37565b604051808681526020018573ffffffffffffffffffffffffffffffffffffffff1673ffffffffffffffffffffffffffffffffffffffff168152602001841515151581526020018381526020018281526020019550505050505060405180910390f35b600160003373ffffffffffffffffffffffffffffffffffffffff1673ffffffffffffffffffffffffffffffffffffffff16815260200190815260200160002060009054906101000a900460ff168061085f57506000809054906101000a900473ffffffffffffffffffffffffffffffffffffffff1673ffffffffffffffffffffffffffffffffffffffff163373ffffffffffffffffffffffffffffffffffffffff16145b15156108d3576040517f08c379a00000000000000000000000000000000000000000000000000000000081526004018080602001828103825260138152602001807f73656e646572206973206e6f742061646d696e0000000000000000000000000081525060200191505060405180910390fd5b60006004600560008473ffffffffffffffffffffffffffffffffffffffff1673ffffffffffffffffffffffffffffffffffffffff1681526020019081526020016000205481548110151561092357fe5b906000526020600020906006020160010160146101000a81548160ff021916908315150217905550600560008273ffffffffffffffffffffffffffffffffffffffff1673ffffffffffffffffffffffffffffffffffffffff168152602001908152602001600020548173ffffffffffffffffffffffffffffffffffffffff167fc2be27190c9a0cc5a468331be74b4e27eb88b54465e6d34a9cfd50d05f43dcf960405160405180910390a350565b6000809054906101000a900473ffffffffffffffffffffffffffffffffffffffff1673ffffffffffffffffffffffffffffffffffffffff163373ffffffffffffffffffffffffffffffffffffffff16141515610abb576040517f08c379a00000000000000000000000000000000000000000000000000000000081526004018080602001828103825260258152602001807f4f6e6c79206f776e65722063616e20706572666f726d2074686973206f70657281526020017f6174696f6e00000000000000000000000000000000000000000000000000000081525060400191505060405180910390fd5b6000600160008373ffffffffffffffffffffffffffffffffffffffff1673ffffffffffffffffffffffffffffffffffffffff16815260200190815260200160002060006101000a81548160ff0219169083151502179055508073ffffffffffffffffffffffffffffffffffffffff167f3137a7fedbfedb7895dfa5a6812a4566dae9ded68d00aeec13c6ed1fa84a1c8060405160405180910390a250565b600080600080610b6885612a9f565b1515610bdc576040517f08c379a00000000000000000000000000000000000000000000000000000000081526004018080602001828103825260178152602001807f6d65726368616e7420646f6573206e6f7420657869737400000000000000000081525060200191505060405180910390fd5b600285815481101515610beb57fe5b9060005260206000209060030201905080600001548160010160009054906101000a900473ffffffffffffffffffffffffffffffffffffffff168260010160149054906101000a900460ff16935093509350509193909250565b600080600080600360008673ffffffffffffffffffffffffffffffffffffffff1673ffffffffffffffffffffffffffffffffffffffff168152602001908152602001600020549050610c9681610b59565b935093509350509193909250565b6000610caf33612acd565b1515610d23576040517f08c379a00000000000000000000000000000000000000000000000000000000081526004018080602001828103825260158152602001807f6d65726368616e74206973206e6f74206f776e6572000000000000000000000081525060200191505060405180910390fd5b600360003373ffffffffffffffffffffffffffffffffffffffff1673ffffffffffffffffffffffffffffffffffffffff16815260200190815260200160002054905081600282815481101515610d7557fe5b906000526020600020906003020160010160006101000a81548173ffffffffffffffffffffffffffffffffffffffff021916908373ffffffffffffffffffffffffffffffffffffffff16021790555080600360008473ffffffffffffffffffffffffffffffffffffffff1673ffffffffffffffffffffffffffffffffffffffff16815260200190815260200160002081905550600360003373ffffffffffffffffffffffffffffffffffffffff1673ffffffffffffffffffffffffffffffffffffffff16815260200190815260200160002060009055807f38e5caf6dbff8a17136395c8c098a4dadbc2ab6724b71a9569100d8d35664afc3384604051808373ffffffffffffffffffffffffffffffffffffffff1673ffffffffffffffffffffffffffffffffffffffff1681526020018273ffffffffffffffffffffffffffffffffffffffff1673ffffffffffffffffffffffffffffffffffffffff1681526020019250505060405180910390a25050565b610eef612c7a565b600160003373ffffffffffffffffffffffffffffffffffffffff1673ffffffffffffffffffffffffffffffffffffffff16815260200190815260200160002060009054906101000a900460ff1680610f9357506000809054906101000a900473ffffffffffffffffffffffffffffffffffffffff1673ffffffffffffffffffffffffffffffffffffffff163373ffffffffffffffffffffffffffffffffffffffff16145b1515611007576040517f08c379a00000000000000000000000000000000000000000000000000000000081526004018080602001828103825260138152602001807f73656e646572206973206e6f742061646d696e0000000000000000000000000081525060200191505060405180910390fd5b60048054905081600001818152505081816020019073ffffffffffffffffffffffffffffffffffffffff16908173ffffffffffffffffffffffffffffffffffffffff1681525050600081604001901515908115158152505060008160600181815250506000816080018181525050600481908060018154018082558091505090600182039060005260206000209060060201600090919290919091506000820151816000015560208201518160010160006101000a81548173ffffffffffffffffffffffffffffffffffffffff021916908373ffffffffffffffffffffffffffffffffffffffff16021790555060408201518160010160146101000a81548160ff02191690831515021790555060608201518160020155608082015181600301555050508060000151600560008473ffffffffffffffffffffffffffffffffffffffff1673ffffffffffffffffffffffffffffffffffffffff1681526020019081526020016000208190555080600001518273ffffffffffffffffffffffffffffffffffffffff167fb6364826b84fdf145940760aab6fcaeeb0d90c5296e070d0db7ec6dec78fe39760405160405180910390a35050565b60006111ca82612a9f565b151561123e576040517f08c379a00000000000000000000000000000000000000000000000000000000081526004018080602001828103825260178152602001807f6d65726368616e7420646f6573206e6f7420657869737400000000000000000081525060200191505060405180910390fd5b60028281548110151561124d57fe5b906000526020600020906003020160020160008473ffffffffffffffffffffffffffffffffffffffff1673ffffffffffffffffffffffffffffffffffffffff16815260200190815260200160002060009054906101000a900460ff16905092915050565b6000806000806000806112c387612b9a565b1515611337576040517f08c379a00000000000000000000000000000000000000000000000000000000081526004018080602001828103825260138152602001807f7573657220646f6573206e6f742065786973740000000000000000000000000081525060200191505060405180910390fd5b60048781548110151561134657fe5b9060005260206000209060060201905080600001548160010160009054906101000a900473ffffffffffffffffffffffffffffffffffffffff168260010160149054906101000a900460ff1683600201548460030154955095509550955095505091939590929450565b6000809054906101000a900473ffffffffffffffffffffffffffffffffffffffff1673ffffffffffffffffffffffffffffffffffffffff163373ffffffffffffffffffffffffffffffffffffffff1614151561149a576040517f08c379a00000000000000000000000000000000000000000000000000000000081526004018080602001828103825260258152602001807f4f6e6c79206f776e65722063616e20706572666f726d2074686973206f70657281526020017f6174696f6e00000000000000000000000000000000000000000000000000000081525060400191505060405180910390fd5b60018060008373ffffffffffffffffffffffffffffffffffffffff1673ffffffffffffffffffffffffffffffffffffffff16815260200190815260200160002060006101000a81548160ff0219169083151502179055508073ffffffffffffffffffffffffffffffffffffffff167f7849194239ab1d31b991b5436d81370256505cf25eaafbcccbc66acd1189691660405160405180910390a250565b600061154233612acd565b15156115b6576040517f08c379a00000000000000000000000000000000000000000000000000000000081526004018080602001828103825260158152602001807f6d65726368616e74206973206e6f74206f776e6572000000000000000000000081525060200191505060405180910390fd5b600360003373ffffffffffffffffffffffffffffffffffffffff1673ffffffffffffffffffffffffffffffffffffffff168152602001908152602001600020549050600160028281548110151561160957fe5b906000526020600020906003020160020160008473ffffffffffffffffffffffffffffffffffffffff1673ffffffffffffffffffffffffffffffffffffffff16815260200190815260200160002060006101000a81548160ff02191690831515021790555080600360008473ffffffffffffffffffffffffffffffffffffffff1673ffffffffffffffffffffffffffffffffffffffff168152602001908152602001600020819055508173ffffffffffffffffffffffffffffffffffffffff16817fe0e5cf542d864cc28fe9bb93f8015ebb10e7444d3a453cab31808fdc63ebc73960405160405180910390a35050565b600080600560008573ffffffffffffffffffffffffffffffffffffffff1673ffffffffffffffffffffffffffffffffffffffff16815260200190815260200160002054905061174881612b9a565b15156117bc576040517f08c379a00000000000000000000000000000000000000000000000000000000081526004018080602001828103825260138152602001807f7573657220646f6573206e6f742065786973740000000000000000000000000081525060200191505060405180910390fd5b6117c583612a9f565b1515611839576040517f08c379a00000000000000000000000000000000000000000000000000000000081526004018080602001828103825260178152602001807f6d65726368616e7420646f6573206e6f7420657869737400000000000000000081525060200191505060405180910390fd5b60048181548110151561184857fe5b906000526020600020906006020160040160008481526020019081526020016000205491505092915050565b600061187f33612acd565b15156118f3576040517f08c379a00000000000000000000000000000000000000000000000000000000081526004018080602001828103825260158152602001807f6d65726368616e74206973206e6f74206f776e6572000000000000000000000081525060200191505060405180910390fd5b600360003373ffffffffffffffffffffffffffffffffffffffff1673ffffffffffffffffffffffffffffffffffffffff168152602001908152602001600020549050600060028281548110151561194657fe5b906000526020600020906003020160020160008473ffffffffffffffffffffffffffffffffffffffff1673ffffffffffffffffffffffffffffffffffffffff16815260200190815260200160002060006101000a81548160ff02191690831515021790555080600360008473ffffffffffffffffffffffffffffffffffffffff1673ffffffffffffffffffffffffffffffffffffffff168152602001908152602001600020819055508173ffffffffffffffffffffffffffffffffffffffff16817fd9d7cc28479337025556e9b66d9ddf15f30c4ca07a5cac044b3fc4ab88e172fa60405160405180910390a35050565b600080600560008573ffffffffffffffffffffffffffffffffffffffff1673ffffffffffffffffffffffffffffffffffffffff168152602001908152602001600020549050611a8581612b9a565b1515611af9576040517f08c379a00000000000000000000000000000000000000000000000000000000081526004018080602001828103825260138152602001807f7573657220646f6573206e6f742065786973740000000000000000000000000081525060200191505060405180910390fd5b611b0283612a9f565b1515611b76576040517f08c379a00000000000000000000000000000000000000000000000000000000081526004018080602001828103825260178152602001807f6d65726368616e7420646f6573206e6f7420657869737400000000000000000081525060200191505060405180910390fd5b600481815481101515611b8557fe5b906000526020600020906006020160050160008481526020019081526020016000205491505092915050565b611bb9612cc2565b600160003373ffffffffffffffffffffffffffffffffffffffff1673ffffffffffffffffffffffffffffffffffffffff16815260200190815260200160002060009054906101000a900460ff1680611c5d57506000809054906101000a900473ffffffffffffffffffffffffffffffffffffffff1673ffffffffffffffffffffffffffffffffffffffff163373ffffffffffffffffffffffffffffffffffffffff16145b1515611cd1576040517f08c379a00000000000000000000000000000000000000000000000000000000081526004018080602001828103825260138152602001807f73656e646572206973206e6f742061646d696e0000000000000000000000000081525060200191505060405180910390fd5b60028054905081600001818152505081816020019073ffffffffffffffffffffffffffffffffffffffff16908173ffffffffffffffffffffffffffffffffffffffff16815250506000816040019015159081151581525050600281908060018154018082558091505090600182039060005260206000209060030201600090919290919091506000820151816000015560208201518160010160006101000a81548173ffffffffffffffffffffffffffffffffffffffff021916908373ffffffffffffffffffffffffffffffffffffffff16021790555060408201518160010160146101000a81548160ff021916908315150217905550505050600160028260000151815481101515611de057fe5b906000526020600020906003020160020160008473ffffffffffffffffffffffffffffffffffffffff1673ffffffffffffffffffffffffffffffffffffffff16815260200190815260200160002060006101000a81548160ff0219169083151502179055508060000151600360008473ffffffffffffffffffffffffffffffffffffffff1673ffffffffffffffffffffffffffffffffffffffff1681526020019081526020016000208190555080600001518273ffffffffffffffffffffffffffffffffffffffff167fb01084884fee4c17d9a0f749b67b3ca7ebb78283da33d6843d7f46b41697b51360405160405180910390a35050565b600080611f24600560003373ffffffffffffffffffffffffffffffffffffffff1673ffffffffffffffffffffffffffffffffffffffff16815260200190815260200160002054612bc8565b1515611f98576040517f08c379a00000000000000000000000000000000000000000000000000000000081526004018080602001828103825260108152602001807f6e6f7420612076616c696420757365720000000000000000000000000000000081525060200191505060405180910390fd5b600560003373ffffffffffffffffffffffffffffffffffffffff1673ffffffffffffffffffffffffffffffffffffffff168152602001908152602001600020549150611fe384612a9f565b1515612057576040517f08c379a00000000000000000000000000000000000000000000000000000000081526004018080602001828103825260178152602001807f6d65726368616e7420646f6573206e6f7420657869737400000000000000000081525060200191505060405180910390fd5b60048281548110151561206657fe5b906000526020600020906006020160050160008581526020019081526020016000205460048381548110151561209857fe5b9060005260206000209060060201600401600086815260200190815260200160002054039050828110151515612136576040517f08c379a00000000000000000000000000000000000000000000000000000000081526004018080602001828103825260118152602001807f6e6f7420656e6f75676820706f696e747300000000000000000000000000000081525060200191505060405180910390fd5b8260048381548110151561214657fe5b9060005260206000209060060201600301600082825403925050819055508260048381548110151561217457fe5b9060005260206000209060060201600501600086815260200190815260200160002060008282540192505081905550833373ffffffffffffffffffffffffffffffffffffffff167fceca6bbcf2a10edbed79404a8d9ed1920eabd78e40a8fd9216e3fb7adf82732d856040518082815260200191505060405180910390a350505050565b600160003373ffffffffffffffffffffffffffffffffffffffff1673ffffffffffffffffffffffffffffffffffffffff16815260200190815260200160002060009054906101000a900460ff168061229c57506000809054906101000a900473ffffffffffffffffffffffffffffffffffffffff1673ffffffffffffffffffffffffffffffffffffffff163373ffffffffffffffffffffffffffffffffffffffff16145b1515612310576040517f08c379a00000000000000000000000000000000000000000000000000000000081526004018080602001828103825260138152602001807f73656e646572206973206e6f742061646d696e0000000000000000000000000081525060200191505060405180910390fd5b60016004600560008473ffffffffffffffffffffffffffffffffffffffff1673ffffffffffffffffffffffffffffffffffffffff1681526020019081526020016000205481548110151561236057fe5b906000526020600020906006020160010160146101000a81548160ff021916908315150217905550600560008273ffffffffffffffffffffffffffffffffffffffff1673ffffffffffffffffffffffffffffffffffffffff168152602001908152602001600020548173ffffffffffffffffffffffffffffffffffffffff167f9b6e57c14b4616ba96329167ca0ade31b69b7fe5a606c5524df505573629c76e60405160405180910390a350565b600160003373ffffffffffffffffffffffffffffffffffffffff1673ffffffffffffffffffffffffffffffffffffffff16815260200190815260200160002060009054906101000a900460ff16806124b257506000809054906101000a900473ffffffffffffffffffffffffffffffffffffffff1673ffffffffffffffffffffffffffffffffffffffff163373ffffffffffffffffffffffffffffffffffffffff16145b1515612526576040517f08c379a00000000000000000000000000000000000000000000000000000000081526004018080602001828103825260138152602001807f73656e646572206973206e6f742061646d696e0000000000000000000000000081525060200191505060405180910390fd5b600060028281548110151561253757fe5b906000526020600020906003020160010160146101000a81548160ff021916908315150217905550807fc02a043301f509d07256b46027d2dbd985c4bcb1a950c4e02f509b7b636fe0cc60405160405180910390a250565b600080600080600360003373ffffffffffffffffffffffffffffffffffffffff1673ffffffffffffffffffffffffffffffffffffffff1681526020019081526020016000205491506002828154811015156125e657fe5b906000526020600020906003020160020160003373ffffffffffffffffffffffffffffffffffffffff1673ffffffffffffffffffffffffffffffffffffffff16815260200190815260200160002060009054906101000a900460ff16905061264d82612c21565b151561265857600080fd5b61266133612acd565b806126695750805b151561267457600080fd5b600560008773ffffffffffffffffffffffffffffffffffffffff1673ffffffffffffffffffffffffffffffffffffffff1681526020019081526020016000205493506126bf84612b9a565b1515612733576040517f08c379a00000000000000000000000000000000000000000000000000000000081526004018080602001828103825260138152602001807f7573657220646f6573206e6f742065786973740000000000000000000000000081525060200191505060405180910390fd5b61273c84612bc8565b15156127b0576040517f08c379a00000000000000000000000000000000000000000000000000000000081526004018080602001828103825260108152602001807f6e6f7420612076616c696420757365720000000000000000000000000000000081525060200191505060405180910390fd5b600360003373ffffffffffffffffffffffffffffffffffffffff1673ffffffffffffffffffffffffffffffffffffffff1681526020019081526020016000205492508460048581548110151561280257fe5b9060005260206000209060060201600201600082825401925050819055508460048581548110151561283057fe5b9060005260206000209060060201600401600085815260200190815260200160002060008282540192505081905550828673ffffffffffffffffffffffffffffffffffffffff167febb6a0504656d3cdee7f7be46f49f658865ac524116e57e2a20fc185b42b2b3a876040518082815260200191505060405180910390a3505050505050565b600160003373ffffffffffffffffffffffffffffffffffffffff1673ffffffffffffffffffffffffffffffffffffffff16815260200190815260200160002060009054906101000a900460ff168061295a57506000809054906101000a900473ffffffffffffffffffffffffffffffffffffffff1673ffffffffffffffffffffffffffffffffffffffff163373ffffffffffffffffffffffffffffffffffffffff16145b15156129ce576040517f08c379a00000000000000000000000000000000000000000000000000000000081526004018080602001828103825260138152602001807f73656e646572206973206e6f742061646d696e0000000000000000000000000081525060200191505060405180910390fd5b60016002828154811015156129df57fe5b906000526020600020906003020160010160146101000a81548160ff021916908315150217905550807f4ddf5536c4e0a31688a6c51b0098e0186571b2b56df7c3cfa60777d9459b0bb960405160405180910390a250565b600080600080600080600560008873ffffffffffffffffffffffffffffffffffffffff1673ffffffffffffffffffffffffffffffffffffffff168152602001908152602001600020549050612a8b816112b1565b955095509550955095505091939590929450565b6000808214158015612ab5575060028054905082105b15612ac35760019050612ac8565b600090505b919050565b600080600360008473ffffffffffffffffffffffffffffffffffffffff1673ffffffffffffffffffffffffffffffffffffffff168152602001908152602001600020549050612b1b81612c21565b8015612b9257508273ffffffffffffffffffffffffffffffffffffffff16600282815481101515612b4857fe5b906000526020600020906003020160010160009054906101000a900473ffffffffffffffffffffffffffffffffffffffff1673ffffffffffffffffffffffffffffffffffffffff16145b915050919050565b6000808214158015612bb0575060048054905082105b15612bbe5760019050612bc3565b600090505b919050565b6000612bd382612b9a565b8015612c095750600482815481101515612be957fe5b906000526020600020906006020160010160149054906101000a900460ff165b15612c175760019050612c1c565b600090505b919050565b6000612c2c82612a9f565b8015612c625750600282815481101515612c4257fe5b906000526020600020906003020160010160149054906101000a900460ff165b15612c705760019050612c75565b600090505b919050565b60a06040519081016040528060008152602001600073ffffffffffffffffffffffffffffffffffffffff16815260200160001515815260200160008152602001600081525090565b60606040519081016040528060008152602001600073ffffffffffffffffffffffffffffffffffffffff16815260200160001515815250905600a165627a7a723058202dd07ffe4fb80e4d93c69efd35009da0bedfacb38bed7978350d9bdbb85afe9c0029",
  "source": "pragma solidity ^0.4.24;\n\ncontract RewardPoints {\n    address private owner;\n    mapping(address => bool) private isAdmin; // Quick way to check if an addr is an Admin\n\n    struct Merchant {\n        uint id;\n        address addr; // the organization's owner address\n        bool isApproved;\n        mapping(address => bool) isOperator; // is addr approved by Merchant as operator\n    }\n    Merchant[] private merchants;\n    mapping(address => uint) private addrToMerchantId; // get merchantId from an addr\n\n    struct User {\n        uint id;\n        address addr;\n        bool isApproved;\n        uint totalEarnedPoints;\n        uint totalReedemedPoints;\n        mapping(uint => uint) merchantToEarnedPts; // keep track of points earned from each merchant separately\n        mapping(uint => uint) merchantToRedeemedPts; // keep track of points used for at each merchant\n    }\n    User[] private users;\n    mapping(address => uint) private addrToUserId;\n\n\n    // =================================\n    // Events and modifiers\n    // =================================\n    event AddedAdmin(address indexed admin);\n    event RemovedAdmin(address indexed admin);\n\n    event AddedMerchant(address indexed merchant, uint indexed id);\n    event BannedMerchant(uint indexed merchantId);\n    event ApprovedMerchant(uint indexed merchantId);\n    event TransferredMerchantOwnership(uint indexed merchantId, address oldOwner, address newOwner);\n\n    event AddedOperator(uint indexed merchantId, address indexed operator);\n    event RemovedOperator(uint indexed merchantId, address indexed operator);\n\n    event AddedUser(address indexed user, uint indexed id);\n    event BannedUser(address indexed user, uint indexed id);\n    event ApprovedUser(address indexed user, uint indexed id);\n\n    event RewardedUser(address indexed user, uint indexed merchantId, uint points);\n    event RedeemedPoints(address indexed user, uint indexed merchantId, uint points);\n\n    modifier onlyOwner() {\n        require(msg.sender == owner, \"Only owner can perform this operation\");\n        _;\n    }\n\n    modifier onlyAdmin() {\n        require(isAdmin[msg.sender] || msg.sender == owner, \"sender is not admin\");\n        _;\n    }\n\n    function merchantExist(uint _id) internal view returns(bool) {\n        if (_id != 0 && _id < merchants.length) return true;\n        return false;\n    }\n\n    function isMerchantValid(uint _id) internal view returns(bool) {\n        if(merchantExist(_id) && merchants[_id].isApproved) return true;\n        return false;\n    }\n\n    function isMerchantOwner(address _owner) internal view returns(bool) {\n        uint id = addrToMerchantId[_owner];\n        return (isMerchantValid(id) && merchants[id].addr == _owner);\n    }\n\n    modifier onlyMerchantOwner() {\n        require(isMerchantOwner(msg.sender), \"merchant is not owner\");\n        _;\n    }\n\n    modifier onlyMerchant() {\n        uint id = addrToMerchantId[msg.sender];\n        bool isOperator = merchants[id].isOperator[msg.sender];\n        require(isMerchantValid(id));\n        require(isMerchantOwner(msg.sender) || isOperator);\n        _;\n    }\n\n    function userExist(uint _id) internal view returns(bool) {\n        if(_id != 0 && _id < users.length) return true;\n        return false;\n    }\n\n    function isUserValid(uint _id) internal view returns(bool) {\n        if(userExist(_id) && users[_id].isApproved) return true;\n        return false;\n    }\n\n    modifier onlyUser() {\n        require(isUserValid(addrToUserId[msg.sender]), \"not a valid user\");\n        _;\n    }\n\n    constructor() public {\n        // Do not use ID 0 for first user and merchant to avoid returning invalid\n        // first merchant/user when looking it up with addrToMerchantID mapping\n        merchants.push(Merchant(0, 0, false));\n        users.push(User(0, 0, false, 0, 0));\n        owner = msg.sender;\n    }\n\n    // =================================\n    // Owner Only\n    // =================================\n    function addAdmin(address _admin) external onlyOwner {\n        // TODO: your code here\n        isAdmin[_admin] = true;\n        \n        emit AddedAdmin(_admin);\n    }\n\n    function removeAdmin(address _admin) external onlyOwner {\n        // TODO: your code here\n        isAdmin[_admin] = false;\n        \n        emit RemovedAdmin(_admin);\n    }\n\n    // =================================\n    // Admin Only Actions\n    // =================================\n    function addMerchant(address _merchant) external onlyAdmin {\n        // TODO: your code here\n        // Hints: Remember the index into the array is the ID\n        \n        // 1. Create a new merchant and assign various fields\n        Merchant memory new_merchant;\n        new_merchant.id = merchants.length;\n        new_merchant.addr = _merchant;\n        new_merchant.isApproved = false;\n\n        // 2. Push new merchant into array\n        merchants.push(new_merchant);\n\n        merchants[new_merchant.id].isOperator[_merchant] = true;\n        \n        // 3. Update addrToMerchantId mapping\n        addrToMerchantId[_merchant] = new_merchant.id;\n\n        // 4. Emit event\n        emit AddedMerchant(_merchant, new_merchant.id);\n    }\n\n    function banMerchant(uint _id) external onlyAdmin {\n        // TODO: your code here\n        // Hints: Only ban merchants that are valid and\n        // remember we're not removing a merchant.\n        merchants[_id].isApproved = false;\n        \n        emit BannedMerchant(_id);\n    }\n\n    function approveMerchant(uint _id) external onlyAdmin {\n        // TODO: your code here\n        // Hints: Do the reverse of banMerchant\n        merchants[_id].isApproved = true;\n        \n        emit ApprovedMerchant(_id);\n    }\n\n    function addUser(address _user) external onlyAdmin {\n        // TODO: your code here\n        // Hints: Similar steps to addMerchant\n\n        User memory new_user;\n        new_user.id = users.length;\n        new_user.addr = _user;\n        new_user.isApproved = false;\n        new_user.totalEarnedPoints = 0;\n        new_user.totalReedemedPoints = 0;\n\n        users.push(new_user);\n\n        addrToUserId[_user] = new_user.id;\n\n        emit AddedUser(_user, new_user.id);\n    }\n\n    function banUser(address _user) external onlyAdmin {\n        // TODO: your code here\n        // Hints: Similar to banMerchant but the input\n        // parameter is user address instead of ID.\n        users[addrToUserId[_user]].isApproved = false;\n\n        emit BannedUser(_user, addrToUserId[_user]);\n    }\n\n    function approveUser(address _user) external onlyAdmin {\n        // TODO: your code here\n        // Hints: Do the reverse of banUser\n        users[addrToUserId[_user]].isApproved = true;\n\n        emit ApprovedUser(_user, addrToUserId[_user]);\n    }\n\n    // =================================\n    // Merchant Owner Only Actions\n    // =================================\n    function addOperator(address _operator) external onlyMerchantOwner {\n        // TODO: your code here\n        // Hints:\n        // 1. Get the merchant ID from msg.sender\n        uint merchantId = addrToMerchantId[msg.sender];\n\n        // 2. Set the correct field within the Merchant Struct\n        merchants[merchantId].isOperator[_operator] = true;\n\n        // 3. Update addrToMerchantId mapping\n        addrToMerchantId[_operator] = merchantId;\n\n        // 4. Emit event\n        emit AddedOperator(merchantId, _operator);\n    }\n\n    function removeOperator(address _operator) external onlyMerchantOwner {\n        // TODO: your code here\n        // Hints: Do the reverse of addOperator\n        // 1. Get the merchant ID from msg.sender\n        uint merchantId = addrToMerchantId[msg.sender];\n\n        // 2. Set the correct field within the Merchant Struct\n        merchants[merchantId].isOperator[_operator] = false;\n\n        // 3. Update addrToMerchantId mapping\n        addrToMerchantId[_operator] = merchantId;\n\n        // 4. Emit event\n        emit RemovedOperator(merchantId, _operator);\n    }\n\n    function transferMerchantOwnership(address _newAddr) external onlyMerchantOwner {\n        // TODO: your code here\n        // Hints: Similar to addOperator but update different fields\n        // but remember to update the addrToMerchantId twice. Once to\n        // remove the old owner and once for the new owner.\n        uint merchantId = addrToMerchantId[msg.sender];\n\n        merchants[merchantId].addr = _newAddr;\n\n        addrToMerchantId[_newAddr] = merchantId;\n        delete addrToMerchantId[msg.sender];\n        // 4. Emit event\n        emit TransferredMerchantOwnership(merchantId, msg.sender, _newAddr);\n    }\n\n    // =================================\n    // Merchant only actions\n    // =================================\n    function rewardUser(address _user, uint _points) external onlyMerchant {\n        // TODO: your code here\n        // Hints: update the total and per merchant points\n        // for the user in the User struct.\n        uint userId = addrToUserId[_user];\n        require(userExist(userId), \"user does not exist\");\n        require(isUserValid(userId), \"not a valid user\");\n        uint merchantId = addrToMerchantId[msg.sender];\n\n        users[userId].totalEarnedPoints += _points;\n        users[userId].merchantToEarnedPts[merchantId] += _points;\n\n        emit RewardedUser(_user, merchantId, _points);\n    }\n\n    // =================================\n    // User only action\n    // =================================\n    function redeemPoints(uint _mId, uint _points) external onlyUser {\n        // TODO: your code here\n        // Hints:\n        // 1. Get the user ID from caller\n        // 2. Ensure user has at least _points at merchant with id _mID\n        // 3. Update the appropriate fields in User structs\n        // 4. Emit event\n        uint userId = addrToUserId[msg.sender];\n        require(merchantExist(_mId), \"merchant does not exist\");\n\n        uint pointsAvailable = users[userId].merchantToEarnedPts[_mId] - users[userId].merchantToRedeemedPts[_mId];\n        require(pointsAvailable >= _points,\"not enough points\");\n\n        users[userId].totalReedemedPoints -= _points;\n        users[userId].merchantToRedeemedPts[_mId] += _points;\n\n        emit RedeemedPoints(msg.sender, _mId, _points);\n    }\n\n    // =================================\n    // Getters\n    // =================================\n\n    function getMerchantById(uint _id) public view returns(uint, address, bool) {\n        require(merchantExist(_id), \"merchant does not exist\");\n        Merchant storage m = merchants[_id];\n        return(m.id, m.addr, m.isApproved);\n    }\n\n    function getMerchantByAddr(address _addr) public view returns(uint, address, bool) {\n        uint id = addrToMerchantId[_addr];\n        return getMerchantById(id);\n    }\n\n    function isMerchantOperator(address _operator, uint _mId) public view returns(bool) {\n        require(merchantExist(_mId), \"merchant does not exist\");\n        return merchants[_mId].isOperator[_operator];\n    }\n\n    function getUserById(uint _id) public view returns(uint, address, bool, uint, uint) {\n        require(userExist(_id), \"user does not exist\");\n        User storage u = users[_id];\n        return(u.id, u.addr, u.isApproved, u.totalEarnedPoints, u.totalReedemedPoints);\n    }\n\n    function getUserByAddr(address _addr) public view returns(uint, address, bool, uint, uint) {\n        uint id = addrToUserId[_addr];\n        return getUserById(id);\n    }\n\n    function getUserEarnedPointsAtMerchant(address _user, uint _mId) public view returns(uint) {\n        uint uId = addrToUserId[_user];\n        require(userExist(uId), \"user does not exist\");\n        require(merchantExist(_mId), \"merchant does not exist\");\n        return users[uId].merchantToEarnedPts[_mId];\n    }\n\n    function getUserRedeemedPointsAtMerchant(address _user, uint _mId) public view returns(uint) {\n        uint uId = addrToUserId[_user];\n        require(userExist(uId), \"user does not exist\");\n        require(merchantExist(_mId), \"merchant does not exist\");\n        return users[uId].merchantToRedeemedPts[_mId];\n    }\n\n}",
  "sourcePath": "/home/sdirix/Documents/eap/eth-accelerator-assignments/week4/reward-points-system/contracts/RewardPoints.sol",
  "compiler": {
    "name": "solc",
    "version": "0.4.24+commit.e67f0147.Emscripten.clang"
  },
  "schemaVersion": "2.0.1",
  "updatedAt": "2018-12-24T17:19:08.916Z"
}